{
  "_format": "hh-sol-artifact-1",
  "contractName": "AccessRequests",
  "sourceName": "contracts/AccessRequests.sol",
  "abi": [
    {
      "anonymous": false,
      "inputs": [
        {
          "indexed": true,
          "internalType": "uint256",
          "name": "requestId",
          "type": "uint256"
        },
        {
          "indexed": true,
          "internalType": "address",
          "name": "patient",
          "type": "address"
        },
        {
          "indexed": false,
          "internalType": "address",
          "name": "requester",
          "type": "address"
        }
      ],
      "name": "AccessApproved",
      "type": "event"
    },
    {
      "anonymous": false,
      "inputs": [
        {
          "indexed": true,
          "internalType": "uint256",
          "name": "requestId",
          "type": "uint256"
        },
        {
          "indexed": true,
          "internalType": "address",
          "name": "patient",
          "type": "address"
        },
        {
          "indexed": false,
          "internalType": "address",
          "name": "requester",
          "type": "address"
        }
      ],
      "name": "AccessRejected",
      "type": "event"
    },
    {
      "anonymous": false,
      "inputs": [
        {
          "indexed": true,
          "internalType": "uint256",
          "name": "requestId",
          "type": "uint256"
        },
        {
          "indexed": true,
          "internalType": "address",
          "name": "patient",
          "type": "address"
        },
        {
          "indexed": false,
          "internalType": "address",
          "name": "requester",
          "type": "address"
        },
        {
          "indexed": false,
          "internalType": "string",
          "name": "purpose",
          "type": "string"
        }
      ],
      "name": "AccessRequested",
      "type": "event"
    },
    {
      "anonymous": false,
      "inputs": [
        {
          "indexed": true,
          "internalType": "address",
          "name": "patient",
          "type": "address"
        },
        {
          "indexed": true,
          "internalType": "address",
          "name": "grantee",
          "type": "address"
        },
        {
          "indexed": false,
          "internalType": "uint8",
          "name": "accessLevel",
          "type": "uint8"
        },
        {
          "indexed": false,
          "internalType": "uint256",
          "name": "expiresAt",
          "type": "uint256"
        }
      ],
      "name": "ConsentGranted",
      "type": "event"
    },
    {
      "anonymous": false,
      "inputs": [
        {
          "indexed": true,
          "internalType": "address",
          "name": "patient",
          "type": "address"
        },
        {
          "indexed": true,
          "internalType": "address",
          "name": "grantee",
          "type": "address"
        }
      ],
      "name": "ConsentRevoked",
      "type": "event"
    },
    {
      "anonymous": false,
      "inputs": [
        {
          "indexed": true,
          "internalType": "address",
          "name": "patient",
          "type": "address"
        },
        {
          "indexed": false,
          "internalType": "string",
          "name": "ipfsHash",
          "type": "string"
        },
        {
          "indexed": false,
          "internalType": "uint256",
          "name": "timestamp",
          "type": "uint256"
        },
        {
          "indexed": false,
          "internalType": "string",
          "name": "description",
          "type": "string"
        }
      ],
      "name": "RecordAdded",
      "type": "event"
    },
    {
      "anonymous": false,
      "inputs": [
        {
          "indexed": true,
          "internalType": "bytes32",
          "name": "role",
          "type": "bytes32"
        },
        {
          "indexed": true,
          "internalType": "bytes32",
          "name": "previousAdminRole",
          "type": "bytes32"
        },
        {
          "indexed": true,
          "internalType": "bytes32",
          "name": "newAdminRole",
          "type": "bytes32"
        }
      ],
      "name": "RoleAdminChanged",
      "type": "event"
    },
    {
      "anonymous": false,
      "inputs": [
        {
          "indexed": true,
          "internalType": "bytes32",
          "name": "role",
          "type": "bytes32"
        },
        {
          "indexed": true,
          "internalType": "address",
          "name": "account",
          "type": "address"
        },
        {
          "indexed": true,
          "internalType": "address",
          "name": "sender",
          "type": "address"
        }
      ],
      "name": "RoleGranted",
      "type": "event"
    },
    {
      "anonymous": false,
      "inputs": [
        {
          "indexed": true,
          "internalType": "bytes32",
          "name": "role",
          "type": "bytes32"
        },
        {
          "indexed": true,
          "internalType": "address",
          "name": "account",
          "type": "address"
        },
        {
          "indexed": true,
          "internalType": "address",
          "name": "sender",
          "type": "address"
        }
      ],
      "name": "RoleRevoked",
      "type": "event"
    },
    {
      "inputs": [],
      "name": "DEFAULT_ADMIN_ROLE",
      "outputs": [
        {
          "internalType": "bytes32",
          "name": "",
          "type": "bytes32"
        }
      ],
      "stateMutability": "view",
      "type": "function"
    },
    {
      "inputs": [],
      "name": "DOCTOR_ROLE",
      "outputs": [
        {
          "internalType": "bytes32",
          "name": "",
          "type": "bytes32"
        }
      ],
      "stateMutability": "view",
      "type": "function"
    },
    {
      "inputs": [],
      "name": "EMERGENCY_ROLE",
      "outputs": [
        {
          "internalType": "bytes32",
          "name": "",
          "type": "bytes32"
        }
      ],
      "stateMutability": "view",
      "type": "function"
    },
    {
      "inputs": [],
      "name": "PATIENT_ROLE",
      "outputs": [
        {
          "internalType": "bytes32",
          "name": "",
          "type": "bytes32"
        }
      ],
      "stateMutability": "view",
      "type": "function"
    },
    {
      "inputs": [],
      "name": "RESEARCHER_ROLE",
      "outputs": [
        {
          "internalType": "bytes32",
          "name": "",
          "type": "bytes32"
        }
      ],
      "stateMutability": "view",
      "type": "function"
    },
    {
      "inputs": [
        {
          "internalType": "uint256",
          "name": "",
          "type": "uint256"
        }
      ],
      "name": "accessRequests",
      "outputs": [
        {
          "internalType": "uint256",
          "name": "requestId",
          "type": "uint256"
        },
        {
          "internalType": "address",
          "name": "requester",
          "type": "address"
        },
        {
          "internalType": "address",
          "name": "patient",
          "type": "address"
        },
        {
          "internalType": "string",
          "name": "purpose",
          "type": "string"
        },
        {
          "internalType": "uint256",
          "name": "duration",
          "type": "uint256"
        },
        {
          "internalType": "uint8",
          "name": "accessLevel",
          "type": "uint8"
        },
        {
          "internalType": "uint256",
          "name": "timestamp",
          "type": "uint256"
        },
        {
          "internalType": "bool",
          "name": "isApproved",
          "type": "bool"
        },
        {
          "internalType": "bool",
          "name": "isProcessed",
          "type": "bool"
        }
      ],
      "stateMutability": "view",
      "type": "function"
    },
    {
      "inputs": [
        {
          "internalType": "string",
          "name": "ipfsHash",
          "type": "string"
        },
        {
          "internalType": "string",
          "name": "fileType",
          "type": "string"
        },
        {
          "internalType": "uint256",
          "name": "fileSize",
          "type": "uint256"
        },
        {
          "internalType": "string",
          "name": "description",
          "type": "string"
        }
      ],
      "name": "addMedicalRecord",
      "outputs": [],
      "stateMutability": "nonpayable",
      "type": "function"
    },
    {
      "inputs": [
        {
          "internalType": "uint256",
          "name": "requestId",
          "type": "uint256"
        }
      ],
      "name": "approveAccess",
      "outputs": [],
      "stateMutability": "nonpayable",
      "type": "function"
    },
    {
      "inputs": [
        {
          "internalType": "address",
          "name": "",
          "type": "address"
        },
        {
          "internalType": "address",
          "name": "",
          "type": "address"
        }
      ],
      "name": "consents",
      "outputs": [
        {
          "internalType": "address",
          "name": "grantee",
          "type": "address"
        },
        {
          "internalType": "uint256",
          "name": "expiresAt",
          "type": "uint256"
        },
        {
          "internalType": "uint8",
          "name": "accessLevel",
          "type": "uint8"
        },
        {
          "internalType": "bool",
          "name": "isActive",
          "type": "bool"
        },
        {
          "internalType": "uint256",
          "name": "grantedAt",
          "type": "uint256"
        }
      ],
      "stateMutability": "view",
      "type": "function"
    },
    {
      "inputs": [],
      "name": "getMyRecords",
      "outputs": [
        {
          "components": [
            {
              "internalType": "string",
              "name": "ipfsHash",
              "type": "string"
            },
            {
              "internalType": "address",
              "name": "patient",
              "type": "address"
            },
            {
              "internalType": "uint256",
              "name": "timestamp",
              "type": "uint256"
            },
            {
              "internalType": "string",
              "name": "fileType",
              "type": "string"
            },
            {
              "internalType": "uint256",
              "name": "fileSize",
              "type": "uint256"
            },
            {
              "internalType": "string",
              "name": "description",
              "type": "string"
            }
          ],
          "internalType": "struct MedicalRecordsStorage.MedicalRecord[]",
          "name": "",
          "type": "tuple[]"
        }
      ],
      "stateMutability": "view",
      "type": "function"
    },
    {
      "inputs": [
        {
          "internalType": "bytes32",
          "name": "role",
          "type": "bytes32"
        }
      ],
      "name": "getRoleAdmin",
      "outputs": [
        {
          "internalType": "bytes32",
          "name": "",
          "type": "bytes32"
        }
      ],
      "stateMutability": "view",
      "type": "function"
    },
    {
      "inputs": [
        {
          "internalType": "address",
          "name": "grantee",
          "type": "address"
        },
        {
          "internalType": "uint256",
          "name": "duration",
          "type": "uint256"
        },
        {
          "internalType": "uint8",
          "name": "accessLevel",
          "type": "uint8"
        }
      ],
      "name": "grantConsent",
      "outputs": [],
      "stateMutability": "nonpayable",
      "type": "function"
    },
    {
      "inputs": [
        {
          "internalType": "bytes32",
          "name": "role",
          "type": "bytes32"
        },
        {
          "internalType": "address",
          "name": "account",
          "type": "address"
        }
      ],
      "name": "grantRole",
      "outputs": [],
      "stateMutability": "nonpayable",
      "type": "function"
    },
    {
      "inputs": [
        {
          "internalType": "address",
          "name": "user",
          "type": "address"
        }
      ],
      "name": "hasResearchAccess",
      "outputs": [
        {
          "internalType": "bool",
          "name": "",
          "type": "bool"
        }
      ],
      "stateMutability": "view",
      "type": "function"
    },
    {
      "inputs": [
        {
          "internalType": "bytes32",
          "name": "role",
          "type": "bytes32"
        },
        {
          "internalType": "address",
          "name": "account",
          "type": "address"
        }
      ],
      "name": "hasRole",
      "outputs": [
        {
          "internalType": "bool",
          "name": "",
          "type": "bool"
        }
      ],
      "stateMutability": "view",
      "type": "function"
    },
    {
      "inputs": [
        {
          "internalType": "address",
          "name": "account",
          "type": "address"
        }
      ],
      "name": "isDoctor",
      "outputs": [
        {
          "internalType": "bool",
          "name": "",
          "type": "bool"
        }
      ],
      "stateMutability": "view",
      "type": "function"
    },
    {
      "inputs": [
        {
          "internalType": "address",
          "name": "account",
          "type": "address"
        }
      ],
      "name": "isEmergencyResponder",
      "outputs": [
        {
          "internalType": "bool",
          "name": "",
          "type": "bool"
        }
      ],
      "stateMutability": "view",
      "type": "function"
    },
    {
      "inputs": [
        {
          "internalType": "address",
          "name": "account",
          "type": "address"
        }
      ],
      "name": "isPatient",
      "outputs": [
        {
          "internalType": "bool",
          "name": "",
          "type": "bool"
        }
      ],
      "stateMutability": "view",
      "type": "function"
    },
    {
      "inputs": [
        {
          "internalType": "address",
          "name": "account",
          "type": "address"
        }
      ],
      "name": "isResearcher",
      "outputs": [
        {
          "internalType": "bool",
          "name": "",
          "type": "bool"
        }
      ],
      "stateMutability": "view",
      "type": "function"
    },
    {
      "inputs": [],
      "name": "registerAsDoctor",
      "outputs": [],
      "stateMutability": "nonpayable",
      "type": "function"
    },
    {
      "inputs": [],
      "name": "registerAsEmergencyResponder",
      "outputs": [],
      "stateMutability": "nonpayable",
      "type": "function"
    },
    {
      "inputs": [],
      "name": "registerAsPatient",
      "outputs": [],
      "stateMutability": "nonpayable",
      "type": "function"
    },
    {
      "inputs": [],
      "name": "registerAsResearcher",
      "outputs": [],
      "stateMutability": "nonpayable",
      "type": "function"
    },
    {
      "inputs": [
        {
          "internalType": "uint256",
          "name": "requestId",
          "type": "uint256"
        }
      ],
      "name": "rejectAccess",
      "outputs": [],
      "stateMutability": "nonpayable",
      "type": "function"
    },
    {
      "inputs": [
        {
          "internalType": "bytes32",
          "name": "role",
          "type": "bytes32"
        },
        {
          "internalType": "address",
          "name": "account",
          "type": "address"
        }
      ],
      "name": "renounceRole",
      "outputs": [],
      "stateMutability": "nonpayable",
      "type": "function"
    },
    {
      "inputs": [
        {
          "internalType": "address",
          "name": "patient",
          "type": "address"
        },
        {
          "internalType": "string",
          "name": "purpose",
          "type": "string"
        },
        {
          "internalType": "uint256",
          "name": "duration",
          "type": "uint256"
        },
        {
          "internalType": "uint8",
          "name": "accessLevel",
          "type": "uint8"
        }
      ],
      "name": "requestAccess",
      "outputs": [],
      "stateMutability": "nonpayable",
      "type": "function"
    },
    {
      "inputs": [],
      "name": "researchToken",
      "outputs": [
        {
          "internalType": "contract IERC721",
          "name": "",
          "type": "address"
        }
      ],
      "stateMutability": "view",
      "type": "function"
    },
    {
      "inputs": [
        {
          "internalType": "address",
          "name": "grantee",
          "type": "address"
        }
      ],
      "name": "revokeConsent",
      "outputs": [],
      "stateMutability": "nonpayable",
      "type": "function"
    },
    {
      "inputs": [
        {
          "internalType": "bytes32",
          "name": "role",
          "type": "bytes32"
        },
        {
          "internalType": "address",
          "name": "account",
          "type": "address"
        }
      ],
      "name": "revokeRole",
      "outputs": [],
      "stateMutability": "nonpayable",
      "type": "function"
    },
    {
      "inputs": [
        {
          "internalType": "address",
          "name": "tokenAddress",
          "type": "address"
        }
      ],
      "name": "setResearchToken",
      "outputs": [],
      "stateMutability": "nonpayable",
      "type": "function"
    },
    {
      "inputs": [
        {
          "internalType": "bytes4",
          "name": "interfaceId",
          "type": "bytes4"
        }
      ],
      "name": "supportsInterface",
      "outputs": [
        {
          "internalType": "bool",
          "name": "",
          "type": "bool"
        }
      ],
      "stateMutability": "view",
      "type": "function"
    }
  ],
  "bytecode": "0x60806040523480156200001157600080fd5b50620000276000801b336200002d60201b60201c565b62000190565b6200003f82826200011e60201b60201c565b6200011a57600160008084815260200190815260200160002060000160008373ffffffffffffffffffffffffffffffffffffffff1673ffffffffffffffffffffffffffffffffffffffff16815260200190815260200160002060006101000a81548160ff021916908315150217905550620000bf6200018860201b60201c565b73ffffffffffffffffffffffffffffffffffffffff168173ffffffffffffffffffffffffffffffffffffffff16837f2f8788117e7eff1d82e926ec794901d17c78024a50270940304540a733656f0d60405160405180910390a45b5050565b600080600084815260200190815260200160002060000160008373ffffffffffffffffffffffffffffffffffffffff1673ffffffffffffffffffffffffffffffffffffffff16815260200190815260200160002060009054906101000a900460ff16905092915050565b600033905090565b61386d80620001a06000396000f3fe608060405234801561001057600080fd5b50600436106101e55760003560e01c806391d148541161010f578063d1a48627116100a2578063e37b7fd111610071578063e37b7fd114610586578063e76637ce146105a2578063f23d5b27146105c0578063fec331f2146105ca576101e5565b8063d1a4862714610516578063d203473914610532578063d27df5071461054e578063d547741f1461056a576101e5565b8063ac5cb97d116100de578063ac5cb97d1461048c578063ae83af55146104aa578063c123bb10146104de578063ccdaab09146104fa576101e5565b806391d1485414610404578063996440c614610434578063a217fddf14610464578063a99ad4ee14610482576101e5565b806336568abe116101875780636ba7fe7f116101565780636ba7fe7f146103885780638ca91a9a146103925780638d38ad1d146103ca5780638f9c79ed146103d4576101e5565b806336568abe146103025780634c4f93121461031e57806350f2aab31461034e578063568497bb1461036c576101e5565b806320df4359116101c357806320df435914610268578063248a9ca3146102865780632f2ff15d146102b6578063363fdebd146102d2576101e5565b806301ffc9a7146101ea57806315c47e601461021a5780631f5c905714610238575b600080fd5b61020460048036038101906101ff91906124eb565b6105e8565b6040516102119190612533565b60405180910390f35b610222610662565b60405161022f91906125cd565b60405180910390f35b610252600480360381019061024d9190612626565b610688565b60405161025f9190612533565b60405180910390f35b6102706106bb565b60405161027d919061266c565b60405180910390f35b6102a0600480360381019061029b91906126b3565b6106df565b6040516102ad919061266c565b60405180910390f35b6102d060048036038101906102cb91906126e0565b6106fe565b005b6102ec60048036038101906102e79190612626565b61071f565b6040516102f99190612533565b60405180910390f35b61031c600480360381019061031791906126e0565b610752565b005b61033860048036038101906103339190612626565b6107d5565b6040516103459190612533565b60405180910390f35b6103566108d7565b604051610363919061266c565b60405180910390f35b61038660048036038101906103819190612756565b6108fb565b005b610390610c7b565b005b6103ac60048036038101906103a79190612756565b610d11565b6040516103c19998979695949392919061284d565b60405180910390f35b6103d2610e4e565b005b6103ee60048036038101906103e99190612626565b610ee4565b6040516103fb9190612533565b60405180910390f35b61041e600480360381019061041991906126e0565b610f17565b60405161042b9190612533565b60405180910390f35b61044e60048036038101906104499190612626565b610f81565b60405161045b9190612533565b60405180910390f35b61046c610fb4565b604051610479919061266c565b60405180910390f35b61048a610fbb565b005b610494611051565b6040516104a1919061266c565b60405180910390f35b6104c460048036038101906104bf91906128e1565b611075565b6040516104d5959493929190612921565b60405180910390f35b6104f860048036038101906104f391906129a0565b6110f2565b005b610514600480360381019061050f9190612b28565b611319565b005b610530600480360381019061052b9190612626565b6114ec565b005b61054c60048036038101906105479190612be3565b61160c565b005b61056860048036038101906105639190612626565b611991565b005b610584600480360381019061057f91906126e0565b6119e3565b005b6105a0600480360381019061059b9190612756565b611a04565b005b6105aa611bb0565b6040516105b79190612e27565b60405180910390f35b6105c8611e6c565b005b6105d2611f02565b6040516105df919061266c565b60405180910390f35b60007f7965db0b000000000000000000000000000000000000000000000000000000007bffffffffffffffffffffffffffffffffffffffffffffffffffffffff1916827bffffffffffffffffffffffffffffffffffffffffffffffffffffffff1916148061065b575061065a82611f26565b5b9050919050565b600160009054906101000a900473ffffffffffffffffffffffffffffffffffffffff1681565b60006106b47fbf233dd2aafeb4d50879c4aa5c81e96d92f6e6945c906a58f9f2d1c1631b4b2683610f17565b9050919050565b7fbf233dd2aafeb4d50879c4aa5c81e96d92f6e6945c906a58f9f2d1c1631b4b2681565b6000806000838152602001908152602001600020600101549050919050565b610707826106df565b61071081611f90565b61071a8383611fa4565b505050565b600061074b7f7765bfe615aab9fb9a16bd4c5c9b353f39dae79ca7da86094b0a74ea8a89e59a83610f17565b9050919050565b61075a612084565b73ffffffffffffffffffffffffffffffffffffffff168173ffffffffffffffffffffffffffffffffffffffff16146107c7576040517f08c379a00000000000000000000000000000000000000000000000000000000081526004016107be90612ebb565b60405180910390fd5b6107d1828261208c565b5050565b60008073ffffffffffffffffffffffffffffffffffffffff16600160009054906101000a900473ffffffffffffffffffffffffffffffffffffffff1673ffffffffffffffffffffffffffffffffffffffff16141580156108d057506000600160009054906101000a900473ffffffffffffffffffffffffffffffffffffffff1673ffffffffffffffffffffffffffffffffffffffff166370a08231846040518263ffffffff1660e01b815260040161088d9190612edb565b602060405180830381865afa1580156108aa573d6000803e3d6000fd5b505050506040513d601f19601f820116820180604052508101906108ce9190612f0b565b115b9050919050565b7f7765bfe615aab9fb9a16bd4c5c9b353f39dae79ca7da86094b0a74ea8a89e59a81565b60006004600083815260200190815260200160002090503373ffffffffffffffffffffffffffffffffffffffff168160020160009054906101000a900473ffffffffffffffffffffffffffffffffffffffff1673ffffffffffffffffffffffffffffffffffffffff16146109a4576040517f08c379a000000000000000000000000000000000000000000000000000000000815260040161099b90612f84565b60405180910390fd5b8060070160019054906101000a900460ff16156109f6576040517f08c379a00000000000000000000000000000000000000000000000000000000081526004016109ed90612ff0565b60405180910390fd5b60018160070160006101000a81548160ff02191690831515021790555060018160070160016101000a81548160ff0219169083151502179055506040518060a001604052808260010160009054906101000a900473ffffffffffffffffffffffffffffffffffffffff1673ffffffffffffffffffffffffffffffffffffffff168152602001620151808360040154610a8e919061303f565b42610a999190613081565b81526020018260050160009054906101000a900460ff1660ff16815260200160011515815260200142815250600360003373ffffffffffffffffffffffffffffffffffffffff1673ffffffffffffffffffffffffffffffffffffffff16815260200190815260200160002060008360010160009054906101000a900473ffffffffffffffffffffffffffffffffffffffff1673ffffffffffffffffffffffffffffffffffffffff1673ffffffffffffffffffffffffffffffffffffffff16815260200190815260200160002060008201518160000160006101000a81548173ffffffffffffffffffffffffffffffffffffffff021916908373ffffffffffffffffffffffffffffffffffffffff1602179055506020820151816001015560408201518160020160006101000a81548160ff021916908360ff16021790555060608201518160020160016101000a81548160ff021916908315150217905550608082015181600301559050503373ffffffffffffffffffffffffffffffffffffffff16827f734eac5b54039ed4ed359c7034f5c743cbea175340fc22ca139f102119991ce98360010160009054906101000a900473ffffffffffffffffffffffffffffffffffffffff16604051610c6f9190612edb565b60405180910390a35050565b610ca57f0af1dac7dea2fd7f7738119cec7df099dfad49aa9d2e7d17ba6b60f63ae7411f33610f17565b15610ce5576040517f08c379a0000000000000000000000000000000000000000000000000000000008152600401610cdc90613101565b60405180910390fd5b610d0f7f0af1dac7dea2fd7f7738119cec7df099dfad49aa9d2e7d17ba6b60f63ae7411f33611fa4565b565b60046020528060005260406000206000915090508060000154908060010160009054906101000a900473ffffffffffffffffffffffffffffffffffffffff16908060020160009054906101000a900473ffffffffffffffffffffffffffffffffffffffff1690806003018054610d8690613150565b80601f0160208091040260200160405190810160405280929190818152602001828054610db290613150565b8015610dff5780601f10610dd457610100808354040283529160200191610dff565b820191906000526020600020905b815481529060010190602001808311610de257829003601f168201915b5050505050908060040154908060050160009054906101000a900460ff16908060060154908060070160009054906101000a900460ff16908060070160019054906101000a900460ff16905089565b610e787f7765bfe615aab9fb9a16bd4c5c9b353f39dae79ca7da86094b0a74ea8a89e59a33610f17565b15610eb8576040517f08c379a0000000000000000000000000000000000000000000000000000000008152600401610eaf906131cd565b60405180910390fd5b610ee27f7765bfe615aab9fb9a16bd4c5c9b353f39dae79ca7da86094b0a74ea8a89e59a33611fa4565b565b6000610f107f72606200fac42b7dc86b75901d61ecfab2a4a1a6eded478b97a428094891abed83610f17565b9050919050565b600080600084815260200190815260200160002060000160008373ffffffffffffffffffffffffffffffffffffffff1673ffffffffffffffffffffffffffffffffffffffff16815260200190815260200160002060009054906101000a900460ff16905092915050565b6000610fad7f0af1dac7dea2fd7f7738119cec7df099dfad49aa9d2e7d17ba6b60f63ae7411f83610f17565b9050919050565b6000801b81565b610fe57f72606200fac42b7dc86b75901d61ecfab2a4a1a6eded478b97a428094891abed33610f17565b15611025576040517f08c379a000000000000000000000000000000000000000000000000000000000815260040161101c90613239565b60405180910390fd5b61104f7f72606200fac42b7dc86b75901d61ecfab2a4a1a6eded478b97a428094891abed33611fa4565b565b7f72606200fac42b7dc86b75901d61ecfab2a4a1a6eded478b97a428094891abed81565b6003602052816000526040600020602052806000526040600020600091509150508060000160009054906101000a900473ffffffffffffffffffffffffffffffffffffffff16908060010154908060020160009054906101000a900460ff16908060020160019054906101000a900460ff16908060030154905085565b7f72606200fac42b7dc86b75901d61ecfab2a4a1a6eded478b97a428094891abed61111c81611f90565b6040518060a001604052808573ffffffffffffffffffffffffffffffffffffffff1681526020016201518085611152919061303f565b4261115d9190613081565b81526020018360ff16815260200160011515815260200142815250600360003373ffffffffffffffffffffffffffffffffffffffff1673ffffffffffffffffffffffffffffffffffffffff16815260200190815260200160002060008673ffffffffffffffffffffffffffffffffffffffff1673ffffffffffffffffffffffffffffffffffffffff16815260200190815260200160002060008201518160000160006101000a81548173ffffffffffffffffffffffffffffffffffffffff021916908373ffffffffffffffffffffffffffffffffffffffff1602179055506020820151816001015560408201518160020160006101000a81548160ff021916908360ff16021790555060608201518160020160016101000a81548160ff021916908315150217905550608082015181600301559050508373ffffffffffffffffffffffffffffffffffffffff163373ffffffffffffffffffffffffffffffffffffffff167fb488760631b7b3a509c146306d32501619b9df1e06d736b2b528a9110d844b348462015180876112f2919061303f565b426112fd9190613081565b60405161130b929190613259565b60405180910390a350505050565b7f72606200fac42b7dc86b75901d61ecfab2a4a1a6eded478b97a428094891abed61134381611f90565b60006040518060c001604052808781526020013373ffffffffffffffffffffffffffffffffffffffff168152602001428152602001868152602001858152602001848152509050600260003373ffffffffffffffffffffffffffffffffffffffff1673ffffffffffffffffffffffffffffffffffffffff16815260200190815260200160002081908060018154018082558091505060019003906000526020600020906006020160009091909190915060008201518160000190816114089190613424565b5060208201518160010160006101000a81548173ffffffffffffffffffffffffffffffffffffffff021916908373ffffffffffffffffffffffffffffffffffffffff16021790555060408201518160020155606082015181600301908161146f9190613424565b506080820151816004015560a082015181600501908161148f9190613424565b5050503373ffffffffffffffffffffffffffffffffffffffff167fd9acf4f586f3b83d7a3c949df2606cf9887c3fcda27a007cc36299ce86c42ca58742866040516114dc939291906134f6565b60405180910390a2505050505050565b7f72606200fac42b7dc86b75901d61ecfab2a4a1a6eded478b97a428094891abed61151681611f90565b6000600360003373ffffffffffffffffffffffffffffffffffffffff1673ffffffffffffffffffffffffffffffffffffffff16815260200190815260200160002060008473ffffffffffffffffffffffffffffffffffffffff1673ffffffffffffffffffffffffffffffffffffffff16815260200190815260200160002060020160016101000a81548160ff0219169083151502179055508173ffffffffffffffffffffffffffffffffffffffff163373ffffffffffffffffffffffffffffffffffffffff167febecee2d3f2ea272f73dd9d9ccc0bacd11280d61240332cbcd8a68173ae5cc2c60405160405180910390a35050565b6116367f0af1dac7dea2fd7f7738119cec7df099dfad49aa9d2e7d17ba6b60f63ae7411f33610f17565b8061166757506116667f7765bfe615aab9fb9a16bd4c5c9b353f39dae79ca7da86094b0a74ea8a89e59a33610f17565b5b6116a6576040517f08c379a000000000000000000000000000000000000000000000000000000000815260040161169d90613587565b60405180910390fd5b6116b0600761216d565b60006116bc6007612183565b90506040518061012001604052808281526020013373ffffffffffffffffffffffffffffffffffffffff1681526020018673ffffffffffffffffffffffffffffffffffffffff1681526020018581526020018481526020018360ff16815260200142815260200160001515815260200160001515815250600460008381526020019081526020016000206000820151816000015560208201518160010160006101000a81548173ffffffffffffffffffffffffffffffffffffffff021916908373ffffffffffffffffffffffffffffffffffffffff16021790555060408201518160020160006101000a81548173ffffffffffffffffffffffffffffffffffffffff021916908373ffffffffffffffffffffffffffffffffffffffff16021790555060608201518160030190816117f39190613424565b506080820151816004015560a08201518160050160006101000a81548160ff021916908360ff16021790555060c0820151816006015560e08201518160070160006101000a81548160ff0219169083151502179055506101008201518160070160016101000a81548160ff021916908315150217905550905050600560008673ffffffffffffffffffffffffffffffffffffffff1673ffffffffffffffffffffffffffffffffffffffff168152602001908152602001600020819080600181540180825580915050600190039060005260206000200160009091909190915055600660003373ffffffffffffffffffffffffffffffffffffffff1673ffffffffffffffffffffffffffffffffffffffff1681526020019081526020016000208190806001815401808255809150506001900390600052602060002001600090919091909150558473ffffffffffffffffffffffffffffffffffffffff16817f21eb886073c5fec0f227f76ef8335d82939c7aa4b537be2e0943f4c1dc74553e33876040516119829291906135a7565b60405180910390a35050505050565b6000801b61199e81611f90565b81600160006101000a81548173ffffffffffffffffffffffffffffffffffffffff021916908373ffffffffffffffffffffffffffffffffffffffff1602179055505050565b6119ec826106df565b6119f581611f90565b6119ff838361208c565b505050565b60006004600083815260200190815260200160002090503373ffffffffffffffffffffffffffffffffffffffff168160020160009054906101000a900473ffffffffffffffffffffffffffffffffffffffff1673ffffffffffffffffffffffffffffffffffffffff1614611aad576040517f08c379a0000000000000000000000000000000000000000000000000000000008152600401611aa490612f84565b60405180910390fd5b8060070160019054906101000a900460ff1615611aff576040517f08c379a0000000000000000000000000000000000000000000000000000000008152600401611af690612ff0565b60405180910390fd5b60008160070160006101000a81548160ff02191690831515021790555060018160070160016101000a81548160ff0219169083151502179055503373ffffffffffffffffffffffffffffffffffffffff16827f5095f38125d7bac3dc8f3013f8eaba5991653a8edb150c3538fc83e9158da4c18360010160009054906101000a900473ffffffffffffffffffffffffffffffffffffffff16604051611ba49190612edb565b60405180910390a35050565b6060600260003373ffffffffffffffffffffffffffffffffffffffff1673ffffffffffffffffffffffffffffffffffffffff168152602001908152602001600020805480602002602001604051908101604052809291908181526020016000905b82821015611e6357838290600052602060002090600602016040518060c0016040529081600082018054611c4490613150565b80601f0160208091040260200160405190810160405280929190818152602001828054611c7090613150565b8015611cbd5780601f10611c9257610100808354040283529160200191611cbd565b820191906000526020600020905b815481529060010190602001808311611ca057829003601f168201915b505050505081526020016001820160009054906101000a900473ffffffffffffffffffffffffffffffffffffffff1673ffffffffffffffffffffffffffffffffffffffff1673ffffffffffffffffffffffffffffffffffffffff16815260200160028201548152602001600382018054611d3690613150565b80601f0160208091040260200160405190810160405280929190818152602001828054611d6290613150565b8015611daf5780601f10611d8457610100808354040283529160200191611daf565b820191906000526020600020905b815481529060010190602001808311611d9257829003601f168201915b5050505050815260200160048201548152602001600582018054611dd290613150565b80601f0160208091040260200160405190810160405280929190818152602001828054611dfe90613150565b8015611e4b5780601f10611e2057610100808354040283529160200191611e4b565b820191906000526020600020905b815481529060010190602001808311611e2e57829003601f168201915b50505050508152505081526020019060010190611c11565b50505050905090565b611e967fbf233dd2aafeb4d50879c4aa5c81e96d92f6e6945c906a58f9f2d1c1631b4b2633610f17565b15611ed6576040517f08c379a0000000000000000000000000000000000000000000000000000000008152600401611ecd90613623565b60405180910390fd5b611f007fbf233dd2aafeb4d50879c4aa5c81e96d92f6e6945c906a58f9f2d1c1631b4b2633611fa4565b565b7f0af1dac7dea2fd7f7738119cec7df099dfad49aa9d2e7d17ba6b60f63ae7411f81565b60007f01ffc9a7000000000000000000000000000000000000000000000000000000007bffffffffffffffffffffffffffffffffffffffffffffffffffffffff1916827bffffffffffffffffffffffffffffffffffffffffffffffffffffffff1916149050919050565b611fa181611f9c612084565b612191565b50565b611fae8282610f17565b61208057600160008084815260200190815260200160002060000160008373ffffffffffffffffffffffffffffffffffffffff1673ffffffffffffffffffffffffffffffffffffffff16815260200190815260200160002060006101000a81548160ff021916908315150217905550612025612084565b73ffffffffffffffffffffffffffffffffffffffff168173ffffffffffffffffffffffffffffffffffffffff16837f2f8788117e7eff1d82e926ec794901d17c78024a50270940304540a733656f0d60405160405180910390a45b5050565b600033905090565b6120968282610f17565b1561216957600080600084815260200190815260200160002060000160008373ffffffffffffffffffffffffffffffffffffffff1673ffffffffffffffffffffffffffffffffffffffff16815260200190815260200160002060006101000a81548160ff02191690831515021790555061210e612084565b73ffffffffffffffffffffffffffffffffffffffff168173ffffffffffffffffffffffffffffffffffffffff16837ff6391f5c32d9c69d2a47ea670b442974b53935d1edc7fd64eb21e047a839171b60405160405180910390a45b5050565b6001816000016000828254019250508190555050565b600081600001549050919050565b61219b8282610f17565b612212576121a881612216565b6121b68360001c6020612243565b6040516020016121c7929190613717565b6040516020818303038152906040526040517f08c379a00000000000000000000000000000000000000000000000000000000081526004016122099190613751565b60405180910390fd5b5050565b606061223c8273ffffffffffffffffffffffffffffffffffffffff16601460ff16612243565b9050919050565b606060006002836002612256919061303f565b6122609190613081565b67ffffffffffffffff811115612279576122786129fd565b5b6040519080825280601f01601f1916602001820160405280156122ab5781602001600182028036833780820191505090505b5090507f3000000000000000000000000000000000000000000000000000000000000000816000815181106122e3576122e2613773565b5b60200101907effffffffffffffffffffffffffffffffffffffffffffffffffffffffffffff1916908160001a9053507f78000000000000000000000000000000000000000000000000000000000000008160018151811061234757612346613773565b5b60200101907effffffffffffffffffffffffffffffffffffffffffffffffffffffffffffff1916908160001a90535060006001846002612387919061303f565b6123919190613081565b90505b6001811115612431577f3031323334353637383961626364656600000000000000000000000000000000600f8616601081106123d3576123d2613773565b5b1a60f81b8282815181106123ea576123e9613773565b5b60200101907effffffffffffffffffffffffffffffffffffffffffffffffffffffffffffff1916908160001a905350600485901c94508061242a906137a2565b9050612394565b5060008414612475576040517f08c379a000000000000000000000000000000000000000000000000000000000815260040161246c90613817565b60405180910390fd5b8091505092915050565b6000604051905090565b600080fd5b600080fd5b60007fffffffff0000000000000000000000000000000000000000000000000000000082169050919050565b6124c881612493565b81146124d357600080fd5b50565b6000813590506124e5816124bf565b92915050565b60006020828403121561250157612500612489565b5b600061250f848285016124d6565b91505092915050565b60008115159050919050565b61252d81612518565b82525050565b60006020820190506125486000830184612524565b92915050565b600073ffffffffffffffffffffffffffffffffffffffff82169050919050565b6000819050919050565b600061259361258e6125898461254e565b61256e565b61254e565b9050919050565b60006125a582612578565b9050919050565b60006125b78261259a565b9050919050565b6125c7816125ac565b82525050565b60006020820190506125e260008301846125be565b92915050565b60006125f38261254e565b9050919050565b612603816125e8565b811461260e57600080fd5b50565b600081359050612620816125fa565b92915050565b60006020828403121561263c5761263b612489565b5b600061264a84828501612611565b91505092915050565b6000819050919050565b61266681612653565b82525050565b6000602082019050612681600083018461265d565b92915050565b61269081612653565b811461269b57600080fd5b50565b6000813590506126ad81612687565b92915050565b6000602082840312156126c9576126c8612489565b5b60006126d78482850161269e565b91505092915050565b600080604083850312156126f7576126f6612489565b5b60006127058582860161269e565b925050602061271685828601612611565b9150509250929050565b6000819050919050565b61273381612720565b811461273e57600080fd5b50565b6000813590506127508161272a565b92915050565b60006020828403121561276c5761276b612489565b5b600061277a84828501612741565b91505092915050565b61278c81612720565b82525050565b61279b816125e8565b82525050565b600081519050919050565b600082825260208201905092915050565b60005b838110156127db5780820151818401526020810190506127c0565b60008484015250505050565b6000601f19601f8301169050919050565b6000612803826127a1565b61280d81856127ac565b935061281d8185602086016127bd565b612826816127e7565b840191505092915050565b600060ff82169050919050565b61284781612831565b82525050565b600061012082019050612863600083018c612783565b612870602083018b612792565b61287d604083018a612792565b818103606083015261288f81896127f8565b905061289e6080830188612783565b6128ab60a083018761283e565b6128b860c0830186612783565b6128c560e0830185612524565b6128d3610100830184612524565b9a9950505050505050505050565b600080604083850312156128f8576128f7612489565b5b600061290685828601612611565b925050602061291785828601612611565b9150509250929050565b600060a0820190506129366000830188612792565b6129436020830187612783565b612950604083018661283e565b61295d6060830185612524565b61296a6080830184612783565b9695505050505050565b61297d81612831565b811461298857600080fd5b50565b60008135905061299a81612974565b92915050565b6000806000606084860312156129b9576129b8612489565b5b60006129c786828701612611565b93505060206129d886828701612741565b92505060406129e98682870161298b565b9150509250925092565b600080fd5b600080fd5b7f4e487b7100000000000000000000000000000000000000000000000000000000600052604160045260246000fd5b612a35826127e7565b810181811067ffffffffffffffff82111715612a5457612a536129fd565b5b80604052505050565b6000612a6761247f565b9050612a738282612a2c565b919050565b600067ffffffffffffffff821115612a9357612a926129fd565b5b612a9c826127e7565b9050602081019050919050565b82818337600083830152505050565b6000612acb612ac684612a78565b612a5d565b905082815260208101848484011115612ae757612ae66129f8565b5b612af2848285612aa9565b509392505050565b600082601f830112612b0f57612b0e6129f3565b5b8135612b1f848260208601612ab8565b91505092915050565b60008060008060808587031215612b4257612b41612489565b5b600085013567ffffffffffffffff811115612b6057612b5f61248e565b5b612b6c87828801612afa565b945050602085013567ffffffffffffffff811115612b8d57612b8c61248e565b5b612b9987828801612afa565b9350506040612baa87828801612741565b925050606085013567ffffffffffffffff811115612bcb57612bca61248e565b5b612bd787828801612afa565b91505092959194509250565b60008060008060808587031215612bfd57612bfc612489565b5b6000612c0b87828801612611565b945050602085013567ffffffffffffffff811115612c2c57612c2b61248e565b5b612c3887828801612afa565b9350506040612c4987828801612741565b9250506060612c5a8782880161298b565b91505092959194509250565b600081519050919050565b600082825260208201905092915050565b6000819050602082019050919050565b600082825260208201905092915050565b6000612cae826127a1565b612cb88185612c92565b9350612cc88185602086016127bd565b612cd1816127e7565b840191505092915050565b612ce5816125e8565b82525050565b612cf481612720565b82525050565b600060c0830160008301518482036000860152612d178282612ca3565b9150506020830151612d2c6020860182612cdc565b506040830151612d3f6040860182612ceb565b5060608301518482036060860152612d578282612ca3565b9150506080830151612d6c6080860182612ceb565b5060a083015184820360a0860152612d848282612ca3565b9150508091505092915050565b6000612d9d8383612cfa565b905092915050565b6000602082019050919050565b6000612dbd82612c66565b612dc78185612c71565b935083602082028501612dd985612c82565b8060005b85811015612e155784840389528151612df68582612d91565b9450612e0183612da5565b925060208a01995050600181019050612ddd565b50829750879550505050505092915050565b60006020820190508181036000830152612e418184612db2565b905092915050565b7f416363657373436f6e74726f6c3a2063616e206f6e6c792072656e6f756e636560008201527f20726f6c657320666f722073656c660000000000000000000000000000000000602082015250565b6000612ea5602f836127ac565b9150612eb082612e49565b604082019050919050565b60006020820190508181036000830152612ed481612e98565b9050919050565b6000602082019050612ef06000830184612792565b92915050565b600081519050612f058161272a565b92915050565b600060208284031215612f2157612f20612489565b5b6000612f2f84828501612ef6565b91505092915050565b7f4e6f742070617469656e74000000000000000000000000000000000000000000600082015250565b6000612f6e600b836127ac565b9150612f7982612f38565b602082019050919050565b60006020820190508181036000830152612f9d81612f61565b9050919050565b7f416c72656164792070726f636573736564000000000000000000000000000000600082015250565b6000612fda6011836127ac565b9150612fe582612fa4565b602082019050919050565b6000602082019050818103600083015261300981612fcd565b9050919050565b7f4e487b7100000000000000000000000000000000000000000000000000000000600052601160045260246000fd5b600061304a82612720565b915061305583612720565b925082820261306381612720565b9150828204841483151761307a57613079613010565b5b5092915050565b600061308c82612720565b915061309783612720565b92508282019050808211156130af576130ae613010565b5b92915050565b7f416c7265616479207265676973746572656420617320446f63746f7200000000600082015250565b60006130eb601c836127ac565b91506130f6826130b5565b602082019050919050565b6000602082019050818103600083015261311a816130de565b9050919050565b7f4e487b7100000000000000000000000000000000000000000000000000000000600052602260045260246000fd5b6000600282049050600182168061316857607f821691505b60208210810361317b5761317a613121565b5b50919050565b7f416c726561647920726567697374657265642061732052657365617263686572600082015250565b60006131b76020836127ac565b91506131c282613181565b602082019050919050565b600060208201905081810360008301526131e6816131aa565b9050919050565b7f416c726561647920726567697374657265642061732050617469656e74000000600082015250565b6000613223601d836127ac565b915061322e826131ed565b602082019050919050565b6000602082019050818103600083015261325281613216565b9050919050565b600060408201905061326e600083018561283e565b61327b6020830184612783565b9392505050565b60008190508160005260206000209050919050565b60006020601f8301049050919050565b600082821b905092915050565b6000600883026132e47fffffffffffffffffffffffffffffffffffffffffffffffffffffffffffffffff826132a7565b6132ee86836132a7565b95508019841693508086168417925050509392505050565b600061332161331c61331784612720565b61256e565b612720565b9050919050565b6000819050919050565b61333b83613306565b61334f61334782613328565b8484546132b4565b825550505050565b600090565b613364613357565b61336f818484613332565b505050565b5b818110156133935761338860008261335c565b600181019050613375565b5050565b601f8211156133d8576133a981613282565b6133b284613297565b810160208510156133c1578190505b6133d56133cd85613297565b830182613374565b50505b505050565b600082821c905092915050565b60006133fb600019846008026133dd565b1980831691505092915050565b600061341483836133ea565b9150826002028217905092915050565b61342d826127a1565b67ffffffffffffffff811115613446576134456129fd565b5b6134508254613150565b61345b828285613397565b600060209050601f83116001811461348e576000841561347c578287015190505b6134868582613408565b8655506134ee565b601f19841661349c86613282565b60005b828110156134c45784890151825560018201915060208501945060208101905061349f565b868310156134e157848901516134dd601f8916826133ea565b8355505b6001600288020188555050505b505050505050565b6000606082019050818103600083015261351081866127f8565b905061351f6020830185612783565b818103604083015261353181846127f8565b9050949350505050565b7f4e6f7420617574686f72697a6564000000000000000000000000000000000000600082015250565b6000613571600e836127ac565b915061357c8261353b565b602082019050919050565b600060208201905081810360008301526135a081613564565b9050919050565b60006040820190506135bc6000830185612792565b81810360208301526135ce81846127f8565b90509392505050565b7f416c7265616479207265676973746572656420617320456d657267656e637900600082015250565b600061360d601f836127ac565b9150613618826135d7565b602082019050919050565b6000602082019050818103600083015261363c81613600565b9050919050565b600081905092915050565b7f416363657373436f6e74726f6c3a206163636f756e7420000000000000000000600082015250565b6000613684601783613643565b915061368f8261364e565b601782019050919050565b60006136a5826127a1565b6136af8185613643565b93506136bf8185602086016127bd565b80840191505092915050565b7f206973206d697373696e6720726f6c6520000000000000000000000000000000600082015250565b6000613701601183613643565b915061370c826136cb565b601182019050919050565b600061372282613677565b915061372e828561369a565b9150613739826136f4565b9150613745828461369a565b91508190509392505050565b6000602082019050818103600083015261376b81846127f8565b905092915050565b7f4e487b7100000000000000000000000000000000000000000000000000000000600052603260045260246000fd5b60006137ad82612720565b9150600082036137c0576137bf613010565b5b600182039050919050565b7f537472696e67733a20686578206c656e67746820696e73756666696369656e74600082015250565b60006138016020836127ac565b915061380c826137cb565b602082019050919050565b60006020820190508181036000830152613830816137f4565b905091905056fea2646970667358221220793a1ced661dc417a1b6883fbb41a523281dd64f64d2e794dafffa602397b36c64736f6c63430008130033",
  "linkReferences": {},
  "deployedLinkReferences": {}
}