{
  "_format": "hh-sol-artifact-1",
  "contractName": "MedicalRecords",
  "sourceName": "contracts/MedicalRecords.sol",
  "abi": [
    {
      "anonymous": false,
      "inputs": [
        {
          "indexed": true,
          "internalType": "address",
          "name": "patient",
          "type": "address"
        },
        {
          "indexed": true,
          "internalType": "address",
          "name": "requester",
          "type": "address"
        },
        {
          "indexed": false,
          "internalType": "uint256",
          "name": "requestId",
          "type": "uint256"
        }
      ],
      "name": "AccessApproved",
      "type": "event"
    },
    {
      "anonymous": false,
      "inputs": [
        {
          "indexed": true,
          "internalType": "address",
          "name": "patient",
          "type": "address"
        },
        {
          "indexed": true,
          "internalType": "address",
          "name": "requester",
          "type": "address"
        },
        {
          "indexed": false,
          "internalType": "uint256",
          "name": "requestId",
          "type": "uint256"
        }
      ],
      "name": "AccessRejected",
      "type": "event"
    },
    {
      "anonymous": false,
      "inputs": [
        {
          "indexed": true,
          "internalType": "address",
          "name": "patient",
          "type": "address"
        },
        {
          "indexed": true,
          "internalType": "address",
          "name": "requester",
          "type": "address"
        },
        {
          "indexed": false,
          "internalType": "uint256",
          "name": "requestId",
          "type": "uint256"
        },
        {
          "indexed": false,
          "internalType": "string",
          "name": "purpose",
          "type": "string"
        }
      ],
      "name": "AccessRequested",
      "type": "event"
    },
    {
      "anonymous": false,
      "inputs": [
        {
          "indexed": true,
          "internalType": "address",
          "name": "patient",
          "type": "address"
        },
        {
          "indexed": true,
          "internalType": "address",
          "name": "grantee",
          "type": "address"
        },
        {
          "indexed": false,
          "internalType": "uint256",
          "name": "duration",
          "type": "uint256"
        },
        {
          "indexed": false,
          "internalType": "uint8",
          "name": "accessLevel",
          "type": "uint8"
        }
      ],
      "name": "ConsentGranted",
      "type": "event"
    },
    {
      "anonymous": false,
      "inputs": [
        {
          "indexed": true,
          "internalType": "address",
          "name": "patient",
          "type": "address"
        },
        {
          "indexed": true,
          "internalType": "address",
          "name": "grantee",
          "type": "address"
        }
      ],
      "name": "ConsentRevoked",
      "type": "event"
    },
    {
      "anonymous": false,
      "inputs": [
        {
          "indexed": true,
          "internalType": "address",
          "name": "doctor",
          "type": "address"
        }
      ],
      "name": "DoctorRegistered",
      "type": "event"
    },
    {
      "anonymous": false,
      "inputs": [
        {
          "indexed": true,
          "internalType": "address",
          "name": "responder",
          "type": "address"
        }
      ],
      "name": "EmergencyResponderRegistered",
      "type": "event"
    },
    {
      "anonymous": false,
      "inputs": [
        {
          "indexed": true,
          "internalType": "address",
          "name": "patient",
          "type": "address"
        },
        {
          "indexed": false,
          "internalType": "uint256",
          "name": "recordId",
          "type": "uint256"
        },
        {
          "indexed": false,
          "internalType": "string",
          "name": "ipfsHash",
          "type": "string"
        }
      ],
      "name": "MedicalRecordAdded",
      "type": "event"
    },
    {
      "anonymous": false,
      "inputs": [
        {
          "indexed": true,
          "internalType": "address",
          "name": "patient",
          "type": "address"
        }
      ],
      "name": "PatientRegistered",
      "type": "event"
    },
    {
      "anonymous": false,
      "inputs": [
        {
          "indexed": true,
          "internalType": "address",
          "name": "researcher",
          "type": "address"
        }
      ],
      "name": "ResearcherRegistered",
      "type": "event"
    },
    {
      "inputs": [
        {
          "internalType": "uint256",
          "name": "",
          "type": "uint256"
        }
      ],
      "name": "accessRequests",
      "outputs": [
        {
          "internalType": "address",
          "name": "patient",
          "type": "address"
        },
        {
          "internalType": "address",
          "name": "requester",
          "type": "address"
        },
        {
          "internalType": "string",
          "name": "purpose",
          "type": "string"
        },
        {
          "internalType": "uint256",
          "name": "duration",
          "type": "uint256"
        },
        {
          "internalType": "uint8",
          "name": "accessLevel",
          "type": "uint8"
        },
        {
          "internalType": "uint256",
          "name": "timestamp",
          "type": "uint256"
        },
        {
          "internalType": "bool",
          "name": "approved",
          "type": "bool"
        },
        {
          "internalType": "bool",
          "name": "rejected",
          "type": "bool"
        }
      ],
      "stateMutability": "view",
      "type": "function"
    },
    {
      "inputs": [
        {
          "internalType": "string",
          "name": "_ipfsHash",
          "type": "string"
        },
        {
          "internalType": "string",
          "name": "_fileType",
          "type": "string"
        },
        {
          "internalType": "uint256",
          "name": "_fileSize",
          "type": "uint256"
        },
        {
          "internalType": "string",
          "name": "_description",
          "type": "string"
        }
      ],
      "name": "addMedicalRecord",
      "outputs": [],
      "stateMutability": "nonpayable",
      "type": "function"
    },
    {
      "inputs": [
        {
          "internalType": "uint256",
          "name": "_requestId",
          "type": "uint256"
        }
      ],
      "name": "approveAccess",
      "outputs": [],
      "stateMutability": "nonpayable",
      "type": "function"
    },
    {
      "inputs": [
        {
          "internalType": "address",
          "name": "",
          "type": "address"
        }
      ],
      "name": "doctors",
      "outputs": [
        {
          "internalType": "bool",
          "name": "",
          "type": "bool"
        }
      ],
      "stateMutability": "view",
      "type": "function"
    },
    {
      "inputs": [
        {
          "internalType": "address",
          "name": "",
          "type": "address"
        }
      ],
      "name": "emergencyResponders",
      "outputs": [
        {
          "internalType": "bool",
          "name": "",
          "type": "bool"
        }
      ],
      "stateMutability": "view",
      "type": "function"
    },
    {
      "inputs": [
        {
          "internalType": "address",
          "name": "_patient",
          "type": "address"
        },
        {
          "internalType": "address",
          "name": "_requester",
          "type": "address"
        }
      ],
      "name": "getAccessLevel",
      "outputs": [
        {
          "internalType": "uint8",
          "name": "",
          "type": "uint8"
        }
      ],
      "stateMutability": "view",
      "type": "function"
    },
    {
      "inputs": [],
      "name": "getMyAccessRequests",
      "outputs": [
        {
          "components": [
            {
              "internalType": "address",
              "name": "patient",
              "type": "address"
            },
            {
              "internalType": "address",
              "name": "requester",
              "type": "address"
            },
            {
              "internalType": "string",
              "name": "purpose",
              "type": "string"
            },
            {
              "internalType": "uint256",
              "name": "duration",
              "type": "uint256"
            },
            {
              "internalType": "uint8",
              "name": "accessLevel",
              "type": "uint8"
            },
            {
              "internalType": "uint256",
              "name": "timestamp",
              "type": "uint256"
            },
            {
              "internalType": "bool",
              "name": "approved",
              "type": "bool"
            },
            {
              "internalType": "bool",
              "name": "rejected",
              "type": "bool"
            }
          ],
          "internalType": "struct MedicalRecords.AccessRequest[]",
          "name": "",
          "type": "tuple[]"
        }
      ],
      "stateMutability": "view",
      "type": "function"
    },
    {
      "inputs": [],
      "name": "getMyRecords",
      "outputs": [
        {
          "components": [
            {
              "internalType": "string",
              "name": "ipfsHash",
              "type": "string"
            },
            {
              "internalType": "string",
              "name": "fileType",
              "type": "string"
            },
            {
              "internalType": "uint256",
              "name": "fileSize",
              "type": "uint256"
            },
            {
              "internalType": "string",
              "name": "description",
              "type": "string"
            },
            {
              "internalType": "uint256",
              "name": "timestamp",
              "type": "uint256"
            },
            {
              "internalType": "address",
              "name": "uploadedBy",
              "type": "address"
            }
          ],
          "internalType": "struct MedicalRecords.MedicalRecord[]",
          "name": "",
          "type": "tuple[]"
        }
      ],
      "stateMutability": "view",
      "type": "function"
    },
    {
      "inputs": [],
      "name": "getPatientAccessRequests",
      "outputs": [
        {
          "components": [
            {
              "internalType": "address",
              "name": "patient",
              "type": "address"
            },
            {
              "internalType": "address",
              "name": "requester",
              "type": "address"
            },
            {
              "internalType": "string",
              "name": "purpose",
              "type": "string"
            },
            {
              "internalType": "uint256",
              "name": "duration",
              "type": "uint256"
            },
            {
              "internalType": "uint8",
              "name": "accessLevel",
              "type": "uint8"
            },
            {
              "internalType": "uint256",
              "name": "timestamp",
              "type": "uint256"
            },
            {
              "internalType": "bool",
              "name": "approved",
              "type": "bool"
            },
            {
              "internalType": "bool",
              "name": "rejected",
              "type": "bool"
            }
          ],
          "internalType": "struct MedicalRecords.AccessRequest[]",
          "name": "",
          "type": "tuple[]"
        }
      ],
      "stateMutability": "view",
      "type": "function"
    },
    {
      "inputs": [
        {
          "internalType": "address",
          "name": "_patient",
          "type": "address"
        }
      ],
      "name": "getPatientRecords",
      "outputs": [
        {
          "components": [
            {
              "internalType": "string",
              "name": "ipfsHash",
              "type": "string"
            },
            {
              "internalType": "string",
              "name": "fileType",
              "type": "string"
            },
            {
              "internalType": "uint256",
              "name": "fileSize",
              "type": "uint256"
            },
            {
              "internalType": "string",
              "name": "description",
              "type": "string"
            },
            {
              "internalType": "uint256",
              "name": "timestamp",
              "type": "uint256"
            },
            {
              "internalType": "address",
              "name": "uploadedBy",
              "type": "address"
            }
          ],
          "internalType": "struct MedicalRecords.MedicalRecord[]",
          "name": "",
          "type": "tuple[]"
        }
      ],
      "stateMutability": "view",
      "type": "function"
    },
    {
      "inputs": [
        {
          "internalType": "address",
          "name": "_user",
          "type": "address"
        }
      ],
      "name": "getRole",
      "outputs": [
        {
          "internalType": "string",
          "name": "",
          "type": "string"
        }
      ],
      "stateMutability": "view",
      "type": "function"
    },
    {
      "inputs": [
        {
          "internalType": "address",
          "name": "_grantee",
          "type": "address"
        },
        {
          "internalType": "uint256",
          "name": "_duration",
          "type": "uint256"
        },
        {
          "internalType": "uint8",
          "name": "_accessLevel",
          "type": "uint8"
        }
      ],
      "name": "grantConsent",
      "outputs": [],
      "stateMutability": "nonpayable",
      "type": "function"
    },
    {
      "inputs": [
        {
          "internalType": "address",
          "name": "_patient",
          "type": "address"
        },
        {
          "internalType": "address",
          "name": "_requester",
          "type": "address"
        }
      ],
      "name": "hasAccess",
      "outputs": [
        {
          "internalType": "bool",
          "name": "",
          "type": "bool"
        }
      ],
      "stateMutability": "view",
      "type": "function"
    },
    {
      "inputs": [
        {
          "internalType": "address",
          "name": "",
          "type": "address"
        }
      ],
      "name": "patients",
      "outputs": [
        {
          "internalType": "bool",
          "name": "",
          "type": "bool"
        }
      ],
      "stateMutability": "view",
      "type": "function"
    },
    {
      "inputs": [],
      "name": "registerAsDoctor",
      "outputs": [],
      "stateMutability": "nonpayable",
      "type": "function"
    },
    {
      "inputs": [],
      "name": "registerAsEmergencyResponder",
      "outputs": [],
      "stateMutability": "nonpayable",
      "type": "function"
    },
    {
      "inputs": [],
      "name": "registerAsPatient",
      "outputs": [],
      "stateMutability": "nonpayable",
      "type": "function"
    },
    {
      "inputs": [],
      "name": "registerAsResearcher",
      "outputs": [],
      "stateMutability": "nonpayable",
      "type": "function"
    },
    {
      "inputs": [
        {
          "internalType": "uint256",
          "name": "_requestId",
          "type": "uint256"
        }
      ],
      "name": "rejectAccess",
      "outputs": [],
      "stateMutability": "nonpayable",
      "type": "function"
    },
    {
      "inputs": [
        {
          "internalType": "address",
          "name": "_patient",
          "type": "address"
        },
        {
          "internalType": "string",
          "name": "_purpose",
          "type": "string"
        },
        {
          "internalType": "uint256",
          "name": "_duration",
          "type": "uint256"
        },
        {
          "internalType": "uint8",
          "name": "_accessLevel",
          "type": "uint8"
        }
      ],
      "name": "requestAccess",
      "outputs": [],
      "stateMutability": "nonpayable",
      "type": "function"
    },
    {
      "inputs": [
        {
          "internalType": "address",
          "name": "",
          "type": "address"
        }
      ],
      "name": "researchers",
      "outputs": [
        {
          "internalType": "bool",
          "name": "",
          "type": "bool"
        }
      ],
      "stateMutability": "view",
      "type": "function"
    },
    {
      "inputs": [
        {
          "internalType": "address",
          "name": "_grantee",
          "type": "address"
        }
      ],
      "name": "revokeConsent",
      "outputs": [],
      "stateMutability": "nonpayable",
      "type": "function"
    }
  ],
  "bytecode": "0x608060405234801561001057600080fd5b50614296806100206000396000f3fe608060405234801561001057600080fd5b50600436106101425760003560e01c8063a9583c22116100b8578063d20347391161007c578063d203473914610368578063e2f4491c14610384578063e37b7fd1146103b4578063e76637ce146103d0578063f23d5b27146103ee578063f99802fb146103f857610142565b8063a9583c22146102da578063a99ad4ee1461030a578063c123bb1014610314578063ccdaab0914610330578063d1a486271461034c57610142565b80632e90931e1161010a5780632e90931e146102255780634427673314610243578063568497bb146102735780636ba7fe7f1461028f5780638ca91a9a146102995780638d38ad1d146102d057610142565b806301bc237d146101475780630869cfbc146101775780630d46ce19146101a75780631709ef07146101c557806318bd4847146101f5575b600080fd5b610161600480360381019061015c9190612f1f565b610428565b60405161016e9190612f67565b60405180910390f35b610191600480360381019061018c9190612f1f565b610448565b60405161019e9190612f67565b60405180910390f35b6101af610468565b6040516101bc91906131d7565b60405180910390f35b6101df60048036038101906101da91906131f9565b610813565b6040516101ec9190612f67565b60405180910390f35b61020f600480360381019061020a9190612f1f565b61089c565b60405161021c9190613392565b60405180910390f35b61022d610bf7565b60405161023a91906131d7565b60405180910390f35b61025d60048036038101906102589190612f1f565b610f17565b60405161026a91906133fe565b60405180910390f35b61028d6004803603810190610288919061344c565b611192565b005b61029761156a565b005b6102b360048036038101906102ae919061344c565b611693565b6040516102c79897969594939291906134a6565b60405180910390f35b6102d86117da565b005b6102f460048036038101906102ef9190612f1f565b611904565b6040516103019190612f67565b60405180910390f35b610312611924565b005b61032e60048036038101906103299190613557565b611a4c565b005b61034a600480360381019061034591906136df565b611d8b565b005b61036660048036038101906103619190612f1f565b612010565b005b610382600480360381019061037d919061379a565b612210565b005b61039e600480360381019061039991906131f9565b61266d565b6040516103ab919061381d565b60405180910390f35b6103ce60048036038101906103c9919061344c565b61274a565b005b6103d86129a4565b6040516103e59190613392565b60405180910390f35b6103f6612ceb565b005b610412600480360381019061040d9190612f1f565b612e15565b60405161041f9190612f67565b60405180910390f35b60026020528060005260406000206000915054906101000a900460ff1681565b60006020528060005260406000206000915054906101000a900460ff1681565b60606000803373ffffffffffffffffffffffffffffffffffffffff1673ffffffffffffffffffffffffffffffffffffffff16815260200190815260200160002060009054906101000a900460ff166104f5576040517f08c379a00000000000000000000000000000000000000000000000000000000081526004016104ec90613884565b60405180910390fd5b6000600860003373ffffffffffffffffffffffffffffffffffffffff1673ffffffffffffffffffffffffffffffffffffffff16815260200190815260200160002080548060200260200160405190810160405280929190818152602001828054801561058057602002820191906000526020600020905b81548152602001906001019080831161056c575b505050505090506000815167ffffffffffffffff8111156105a4576105a36135b4565b5b6040519080825280602002602001820160405280156105dd57816020015b6105ca612e35565b8152602001906001900390816105c25790505b50905060005b825181101561080a576007838281518110610601576106006138a4565b5b60200260200101518154811061061a576106196138a4565b5b9060005260206000209060070201604051806101000160405290816000820160009054906101000a900473ffffffffffffffffffffffffffffffffffffffff1673ffffffffffffffffffffffffffffffffffffffff1673ffffffffffffffffffffffffffffffffffffffff1681526020016001820160009054906101000a900473ffffffffffffffffffffffffffffffffffffffff1673ffffffffffffffffffffffffffffffffffffffff1673ffffffffffffffffffffffffffffffffffffffff1681526020016002820180546106f090613902565b80601f016020809104026020016040519081016040528092919081815260200182805461071c90613902565b80156107695780601f1061073e57610100808354040283529160200191610769565b820191906000526020600020905b81548152906001019060200180831161074c57829003601f168201915b50505050508152602001600382015481526020016004820160009054906101000a900460ff1660ff1660ff168152602001600582015481526020016006820160009054906101000a900460ff161515151581526020016006820160019054906101000a900460ff1615151515815250508282815181106107ec576107eb6138a4565b5b6020026020010181905250808061080290613962565b9150506105e3565b50809250505090565b600042600560008573ffffffffffffffffffffffffffffffffffffffff1673ffffffffffffffffffffffffffffffffffffffff16815260200190815260200160002060008473ffffffffffffffffffffffffffffffffffffffff1673ffffffffffffffffffffffffffffffffffffffff1681526020019081526020016000205411905092915050565b60606108a88233610813565b806108fc5750600360003373ffffffffffffffffffffffffffffffffffffffff1673ffffffffffffffffffffffffffffffffffffffff16815260200190815260200160002060009054906101000a900460ff165b61093b576040517f08c379a0000000000000000000000000000000000000000000000000000000008152600401610932906139f6565b60405180910390fd5b600460008373ffffffffffffffffffffffffffffffffffffffff1673ffffffffffffffffffffffffffffffffffffffff168152602001908152602001600020805480602002602001604051908101604052809291908181526020016000905b82821015610bec57838290600052602060002090600602016040518060c00160405290816000820180546109cd90613902565b80601f01602080910402602001604051908101604052809291908181526020018280546109f990613902565b8015610a465780601f10610a1b57610100808354040283529160200191610a46565b820191906000526020600020905b815481529060010190602001808311610a2957829003601f168201915b50505050508152602001600182018054610a5f90613902565b80601f0160208091040260200160405190810160405280929190818152602001828054610a8b90613902565b8015610ad85780601f10610aad57610100808354040283529160200191610ad8565b820191906000526020600020905b815481529060010190602001808311610abb57829003601f168201915b5050505050815260200160028201548152602001600382018054610afb90613902565b80601f0160208091040260200160405190810160405280929190818152602001828054610b2790613902565b8015610b745780601f10610b4957610100808354040283529160200191610b74565b820191906000526020600020905b815481529060010190602001808311610b5757829003601f168201915b50505050508152602001600482015481526020016005820160009054906101000a900473ffffffffffffffffffffffffffffffffffffffff1673ffffffffffffffffffffffffffffffffffffffff1673ffffffffffffffffffffffffffffffffffffffff16815250508152602001906001019061099a565b505050509050919050565b60606000600960003373ffffffffffffffffffffffffffffffffffffffff1673ffffffffffffffffffffffffffffffffffffffff168152602001908152602001600020805480602002602001604051908101604052809291908181526020018280548015610c8457602002820191906000526020600020905b815481526020019060010190808311610c70575b505050505090506000815167ffffffffffffffff811115610ca857610ca76135b4565b5b604051908082528060200260200182016040528015610ce157816020015b610cce612e35565b815260200190600190039081610cc65790505b50905060005b8251811015610f0e576007838281518110610d0557610d046138a4565b5b602002602001015181548110610d1e57610d1d6138a4565b5b9060005260206000209060070201604051806101000160405290816000820160009054906101000a900473ffffffffffffffffffffffffffffffffffffffff1673ffffffffffffffffffffffffffffffffffffffff1673ffffffffffffffffffffffffffffffffffffffff1681526020016001820160009054906101000a900473ffffffffffffffffffffffffffffffffffffffff1673ffffffffffffffffffffffffffffffffffffffff1673ffffffffffffffffffffffffffffffffffffffff168152602001600282018054610df490613902565b80601f0160208091040260200160405190810160405280929190818152602001828054610e2090613902565b8015610e6d5780601f10610e4257610100808354040283529160200191610e6d565b820191906000526020600020905b815481529060010190602001808311610e5057829003601f168201915b50505050508152602001600382015481526020016004820160009054906101000a900460ff1660ff1660ff168152602001600582015481526020016006820160009054906101000a900460ff161515151581526020016006820160019054906101000a900460ff161515151581525050828281518110610ef057610eef6138a4565b5b60200260200101819052508080610f0690613962565b915050610ce7565b50809250505090565b60606000808373ffffffffffffffffffffffffffffffffffffffff1673ffffffffffffffffffffffffffffffffffffffff16815260200190815260200160002060009054906101000a900460ff1615610fa7576040518060400160405280600781526020017f70617469656e7400000000000000000000000000000000000000000000000000815250905061118d565b600160008373ffffffffffffffffffffffffffffffffffffffff1673ffffffffffffffffffffffffffffffffffffffff16815260200190815260200160002060009054906101000a900460ff1615611036576040518060400160405280600681526020017f646f63746f720000000000000000000000000000000000000000000000000000815250905061118d565b600260008373ffffffffffffffffffffffffffffffffffffffff1673ffffffffffffffffffffffffffffffffffffffff16815260200190815260200160002060009054906101000a900460ff16156110c5576040518060400160405280600a81526020017f7265736561726368657200000000000000000000000000000000000000000000815250905061118d565b600360008373ffffffffffffffffffffffffffffffffffffffff1673ffffffffffffffffffffffffffffffffffffffff16815260200190815260200160002060009054906101000a900460ff1615611154576040518060400160405280600981526020017f656d657267656e63790000000000000000000000000000000000000000000000815250905061118d565b6040518060400160405280600481526020017f6e6f6e650000000000000000000000000000000000000000000000000000000081525090505b919050565b6000803373ffffffffffffffffffffffffffffffffffffffff1673ffffffffffffffffffffffffffffffffffffffff16815260200190815260200160002060009054906101000a900460ff1661121d576040517f08c379a000000000000000000000000000000000000000000000000000000000815260040161121490613884565b60405180910390fd5b600060078281548110611233576112326138a4565b5b906000526020600020906007020190503373ffffffffffffffffffffffffffffffffffffffff168160000160009054906101000a900473ffffffffffffffffffffffffffffffffffffffff1673ffffffffffffffffffffffffffffffffffffffff16146112d5576040517f08c379a00000000000000000000000000000000000000000000000000000000081526004016112cc90613a62565b60405180910390fd5b8060060160009054906101000a900460ff1615801561130357508060060160019054906101000a900460ff16155b611342576040517f08c379a000000000000000000000000000000000000000000000000000000000815260040161133990613ace565b60405180910390fd5b60018160060160006101000a81548160ff02191690831515021790555080600301544261136f9190613aee565b600560003373ffffffffffffffffffffffffffffffffffffffff1673ffffffffffffffffffffffffffffffffffffffff16815260200190815260200160002060008360010160009054906101000a900473ffffffffffffffffffffffffffffffffffffffff1673ffffffffffffffffffffffffffffffffffffffff1673ffffffffffffffffffffffffffffffffffffffff168152602001908152602001600020819055508060040160009054906101000a900460ff16600660003373ffffffffffffffffffffffffffffffffffffffff1673ffffffffffffffffffffffffffffffffffffffff16815260200190815260200160002060008360010160009054906101000a900473ffffffffffffffffffffffffffffffffffffffff1673ffffffffffffffffffffffffffffffffffffffff1673ffffffffffffffffffffffffffffffffffffffff16815260200190815260200160002060006101000a81548160ff021916908360ff1602179055508060010160009054906101000a900473ffffffffffffffffffffffffffffffffffffffff1673ffffffffffffffffffffffffffffffffffffffff163373ffffffffffffffffffffffffffffffffffffffff167f9f568fc319bb7f97207b645908ae87eb85c031b586f644c86cc3e86a9cc49e728460405161155e9190613b22565b60405180910390a35050565b600160003373ffffffffffffffffffffffffffffffffffffffff1673ffffffffffffffffffffffffffffffffffffffff16815260200190815260200160002060009054906101000a900460ff16156115f7576040517f08c379a00000000000000000000000000000000000000000000000000000000081526004016115ee90613b89565b60405180910390fd5b60018060003373ffffffffffffffffffffffffffffffffffffffff1673ffffffffffffffffffffffffffffffffffffffff16815260200190815260200160002060006101000a81548160ff0219169083151502179055503373ffffffffffffffffffffffffffffffffffffffff167f2dc8105a7545248d0e354c4c6b02fb583071cc719fb4bef1ca74d72d475570bc60405160405180910390a2565b600781815481106116a357600080fd5b90600052602060002090600702016000915090508060000160009054906101000a900473ffffffffffffffffffffffffffffffffffffffff16908060010160009054906101000a900473ffffffffffffffffffffffffffffffffffffffff169080600201805461171290613902565b80601f016020809104026020016040519081016040528092919081815260200182805461173e90613902565b801561178b5780601f106117605761010080835404028352916020019161178b565b820191906000526020600020905b81548152906001019060200180831161176e57829003601f168201915b5050505050908060030154908060040160009054906101000a900460ff16908060050154908060060160009054906101000a900460ff16908060060160019054906101000a900460ff16905088565b600260003373ffffffffffffffffffffffffffffffffffffffff1673ffffffffffffffffffffffffffffffffffffffff16815260200190815260200160002060009054906101000a900460ff1615611867576040517f08c379a000000000000000000000000000000000000000000000000000000000815260040161185e90613bf5565b60405180910390fd5b6001600260003373ffffffffffffffffffffffffffffffffffffffff1673ffffffffffffffffffffffffffffffffffffffff16815260200190815260200160002060006101000a81548160ff0219169083151502179055503373ffffffffffffffffffffffffffffffffffffffff167ffe8f384bc0d60cab4c97dca9feb8ea45910e4d850997b743517b58da54f4909a60405160405180910390a2565b60016020528060005260406000206000915054906101000a900460ff1681565b6000803373ffffffffffffffffffffffffffffffffffffffff1673ffffffffffffffffffffffffffffffffffffffff16815260200190815260200160002060009054906101000a900460ff16156119b0576040517f08c379a00000000000000000000000000000000000000000000000000000000081526004016119a790613c61565b60405180910390fd5b60016000803373ffffffffffffffffffffffffffffffffffffffff1673ffffffffffffffffffffffffffffffffffffffff16815260200190815260200160002060006101000a81548160ff0219169083151502179055503373ffffffffffffffffffffffffffffffffffffffff167fc9fa2003fca4ce0dfc8cb0deae32266b715536df6685365b05b5be96ede8e49c60405160405180910390a2565b6000803373ffffffffffffffffffffffffffffffffffffffff1673ffffffffffffffffffffffffffffffffffffffff16815260200190815260200160002060009054906101000a900460ff16611ad7576040517f08c379a0000000000000000000000000000000000000000000000000000000008152600401611ace90613884565b60405180910390fd5b600160008473ffffffffffffffffffffffffffffffffffffffff1673ffffffffffffffffffffffffffffffffffffffff16815260200190815260200160002060009054906101000a900460ff1680611b785750600260008473ffffffffffffffffffffffffffffffffffffffff1673ffffffffffffffffffffffffffffffffffffffff16815260200190815260200160002060009054906101000a900460ff165b611bb7576040517f08c379a0000000000000000000000000000000000000000000000000000000008152600401611bae90613cf3565b60405180910390fd5b60018160ff161115611bfe576040517f08c379a0000000000000000000000000000000000000000000000000000000008152600401611bf590613d5f565b60405180910390fd5b8142611c0a9190613aee565b600560003373ffffffffffffffffffffffffffffffffffffffff1673ffffffffffffffffffffffffffffffffffffffff16815260200190815260200160002060008573ffffffffffffffffffffffffffffffffffffffff1673ffffffffffffffffffffffffffffffffffffffff1681526020019081526020016000208190555080600660003373ffffffffffffffffffffffffffffffffffffffff1673ffffffffffffffffffffffffffffffffffffffff16815260200190815260200160002060008573ffffffffffffffffffffffffffffffffffffffff1673ffffffffffffffffffffffffffffffffffffffff16815260200190815260200160002060006101000a81548160ff021916908360ff1602179055508273ffffffffffffffffffffffffffffffffffffffff163373ffffffffffffffffffffffffffffffffffffffff167f658de7c667bf3c6995556968dcc8563bf9ca4c61fe5057d1be3002c0831d79c98484604051611d7e929190613d7f565b60405180910390a3505050565b6000803373ffffffffffffffffffffffffffffffffffffffff1673ffffffffffffffffffffffffffffffffffffffff16815260200190815260200160002060009054906101000a900460ff16611e16576040517f08c379a0000000000000000000000000000000000000000000000000000000008152600401611e0d90613884565b60405180910390fd5b60006040518060c001604052808681526020018581526020018481526020018381526020014281526020013373ffffffffffffffffffffffffffffffffffffffff168152509050600460003373ffffffffffffffffffffffffffffffffffffffff1673ffffffffffffffffffffffffffffffffffffffff1681526020019081526020016000208190806001815401808255809150506001900390600052602060002090600602016000909190919091506000820151816000019081611edb9190613f54565b506020820151816001019081611ef19190613f54565b50604082015181600201556060820151816003019081611f119190613f54565b506080820151816004015560a08201518160050160006101000a81548173ffffffffffffffffffffffffffffffffffffffff021916908373ffffffffffffffffffffffffffffffffffffffff160217905550505060006001600460003373ffffffffffffffffffffffffffffffffffffffff1673ffffffffffffffffffffffffffffffffffffffff16815260200190815260200160002080549050611fb69190614026565b90503373ffffffffffffffffffffffffffffffffffffffff167f11975a2e5caeb81e88111573ac7fb056d228a28f1745b1e09ed655d9f31e9e90828860405161200092919061405a565b60405180910390a2505050505050565b6000803373ffffffffffffffffffffffffffffffffffffffff1673ffffffffffffffffffffffffffffffffffffffff16815260200190815260200160002060009054906101000a900460ff1661209b576040517f08c379a000000000000000000000000000000000000000000000000000000000815260040161209290613884565b60405180910390fd5b6000600560003373ffffffffffffffffffffffffffffffffffffffff1673ffffffffffffffffffffffffffffffffffffffff16815260200190815260200160002060008373ffffffffffffffffffffffffffffffffffffffff1673ffffffffffffffffffffffffffffffffffffffff168152602001908152602001600020819055506000600660003373ffffffffffffffffffffffffffffffffffffffff1673ffffffffffffffffffffffffffffffffffffffff16815260200190815260200160002060008373ffffffffffffffffffffffffffffffffffffffff1673ffffffffffffffffffffffffffffffffffffffff16815260200190815260200160002060006101000a81548160ff021916908360ff1602179055508073ffffffffffffffffffffffffffffffffffffffff163373ffffffffffffffffffffffffffffffffffffffff167febecee2d3f2ea272f73dd9d9ccc0bacd11280d61240332cbcd8a68173ae5cc2c60405160405180910390a350565b600160003373ffffffffffffffffffffffffffffffffffffffff1673ffffffffffffffffffffffffffffffffffffffff16815260200190815260200160002060009054906101000a900460ff1661229c576040517f08c379a0000000000000000000000000000000000000000000000000000000008152600401612293906140d6565b60405180910390fd5b6000808573ffffffffffffffffffffffffffffffffffffffff1673ffffffffffffffffffffffffffffffffffffffff16815260200190815260200160002060009054906101000a900460ff16612327576040517f08c379a000000000000000000000000000000000000000000000000000000000815260040161231e90614142565b60405180910390fd5b60018160ff16111561236e576040517f08c379a000000000000000000000000000000000000000000000000000000000815260040161236590613d5f565b60405180910390fd5b60006040518061010001604052808673ffffffffffffffffffffffffffffffffffffffff1681526020013373ffffffffffffffffffffffffffffffffffffffff1681526020018581526020018481526020018360ff16815260200142815260200160001515815260200160001515815250905060006007805490509050600782908060018154018082558091505060019003906000526020600020906007020160009091909190915060008201518160000160006101000a81548173ffffffffffffffffffffffffffffffffffffffff021916908373ffffffffffffffffffffffffffffffffffffffff16021790555060208201518160010160006101000a81548173ffffffffffffffffffffffffffffffffffffffff021916908373ffffffffffffffffffffffffffffffffffffffff16021790555060408201518160020190816124ba9190613f54565b506060820151816003015560808201518160040160006101000a81548160ff021916908360ff16021790555060a0820151816005015560c08201518160060160006101000a81548160ff02191690831515021790555060e08201518160060160016101000a81548160ff0219169083151502179055505050600860008773ffffffffffffffffffffffffffffffffffffffff1673ffffffffffffffffffffffffffffffffffffffff168152602001908152602001600020819080600181540180825580915050600190039060005260206000200160009091909190915055600960003373ffffffffffffffffffffffffffffffffffffffff1673ffffffffffffffffffffffffffffffffffffffff1681526020019081526020016000208190806001815401808255809150506001900390600052602060002001600090919091909150553373ffffffffffffffffffffffffffffffffffffffff168673ffffffffffffffffffffffffffffffffffffffff167fb1062b349bdeada27fa0bdfc8b661dd024dfeae541dea561c4683ea43a5190f2838860405161265d92919061405a565b60405180910390a3505050505050565b60006126798383610813565b6126b8576040517f08c379a00000000000000000000000000000000000000000000000000000000081526004016126af906141ae565b60405180910390fd5b600660008473ffffffffffffffffffffffffffffffffffffffff1673ffffffffffffffffffffffffffffffffffffffff16815260200190815260200160002060008373ffffffffffffffffffffffffffffffffffffffff1673ffffffffffffffffffffffffffffffffffffffff16815260200190815260200160002060009054906101000a900460ff16905092915050565b6000803373ffffffffffffffffffffffffffffffffffffffff1673ffffffffffffffffffffffffffffffffffffffff16815260200190815260200160002060009054906101000a900460ff166127d5576040517f08c379a00000000000000000000000000000000000000000000000000000000081526004016127cc90613884565b60405180910390fd5b6000600782815481106127eb576127ea6138a4565b5b906000526020600020906007020190503373ffffffffffffffffffffffffffffffffffffffff168160000160009054906101000a900473ffffffffffffffffffffffffffffffffffffffff1673ffffffffffffffffffffffffffffffffffffffff161461288d576040517f08c379a000000000000000000000000000000000000000000000000000000000815260040161288490613a62565b60405180910390fd5b8060060160009054906101000a900460ff161580156128bb57508060060160019054906101000a900460ff16155b6128fa576040517f08c379a00000000000000000000000000000000000000000000000000000000081526004016128f190613ace565b60405180910390fd5b60018160060160016101000a81548160ff0219169083151502179055508060010160009054906101000a900473ffffffffffffffffffffffffffffffffffffffff1673ffffffffffffffffffffffffffffffffffffffff163373ffffffffffffffffffffffffffffffffffffffff167f2e5d414ab6e4c8daab8e69669415eecdbbbe201510f685d118aeeb139f2e5af0846040516129989190613b22565b60405180910390a35050565b60606000803373ffffffffffffffffffffffffffffffffffffffff1673ffffffffffffffffffffffffffffffffffffffff16815260200190815260200160002060009054906101000a900460ff16612a31576040517f08c379a0000000000000000000000000000000000000000000000000000000008152600401612a2890613884565b60405180910390fd5b600460003373ffffffffffffffffffffffffffffffffffffffff1673ffffffffffffffffffffffffffffffffffffffff168152602001908152602001600020805480602002602001604051908101604052809291908181526020016000905b82821015612ce257838290600052602060002090600602016040518060c0016040529081600082018054612ac390613902565b80601f0160208091040260200160405190810160405280929190818152602001828054612aef90613902565b8015612b3c5780601f10612b1157610100808354040283529160200191612b3c565b820191906000526020600020905b815481529060010190602001808311612b1f57829003601f168201915b50505050508152602001600182018054612b5590613902565b80601f0160208091040260200160405190810160405280929190818152602001828054612b8190613902565b8015612bce5780601f10612ba357610100808354040283529160200191612bce565b820191906000526020600020905b815481529060010190602001808311612bb157829003601f168201915b5050505050815260200160028201548152602001600382018054612bf190613902565b80601f0160208091040260200160405190810160405280929190818152602001828054612c1d90613902565b8015612c6a5780601f10612c3f57610100808354040283529160200191612c6a565b820191906000526020600020905b815481529060010190602001808311612c4d57829003601f168201915b50505050508152602001600482015481526020016005820160009054906101000a900473ffffffffffffffffffffffffffffffffffffffff1673ffffffffffffffffffffffffffffffffffffffff1673ffffffffffffffffffffffffffffffffffffffff168152505081526020019060010190612a90565b50505050905090565b600360003373ffffffffffffffffffffffffffffffffffffffff1673ffffffffffffffffffffffffffffffffffffffff16815260200190815260200160002060009054906101000a900460ff1615612d78576040517f08c379a0000000000000000000000000000000000000000000000000000000008152600401612d6f90614240565b60405180910390fd5b6001600360003373ffffffffffffffffffffffffffffffffffffffff1673ffffffffffffffffffffffffffffffffffffffff16815260200190815260200160002060006101000a81548160ff0219169083151502179055503373ffffffffffffffffffffffffffffffffffffffff167f8b0666a6a8dea934536cf7554fe983cb1712a04f7d353a664864ce931378d2cc60405160405180910390a2565b60036020528060005260406000206000915054906101000a900460ff1681565b604051806101000160405280600073ffffffffffffffffffffffffffffffffffffffff168152602001600073ffffffffffffffffffffffffffffffffffffffff1681526020016060815260200160008152602001600060ff168152602001600081526020016000151581526020016000151581525090565b6000604051905090565b600080fd5b600080fd5b600073ffffffffffffffffffffffffffffffffffffffff82169050919050565b6000612eec82612ec1565b9050919050565b612efc81612ee1565b8114612f0757600080fd5b50565b600081359050612f1981612ef3565b92915050565b600060208284031215612f3557612f34612eb7565b5b6000612f4384828501612f0a565b91505092915050565b60008115159050919050565b612f6181612f4c565b82525050565b6000602082019050612f7c6000830184612f58565b92915050565b600081519050919050565b600082825260208201905092915050565b6000819050602082019050919050565b612fb781612ee1565b82525050565b600081519050919050565b600082825260208201905092915050565b60005b83811015612ff7578082015181840152602081019050612fdc565b60008484015250505050565b6000601f19601f8301169050919050565b600061301f82612fbd565b6130298185612fc8565b9350613039818560208601612fd9565b61304281613003565b840191505092915050565b6000819050919050565b6130608161304d565b82525050565b600060ff82169050919050565b61307c81613066565b82525050565b61308b81612f4c565b82525050565b6000610100830160008301516130aa6000860182612fae565b5060208301516130bd6020860182612fae565b50604083015184820360408601526130d58282613014565b91505060608301516130ea6060860182613057565b5060808301516130fd6080860182613073565b5060a083015161311060a0860182613057565b5060c083015161312360c0860182613082565b5060e083015161313660e0860182613082565b508091505092915050565b600061314d8383613091565b905092915050565b6000602082019050919050565b600061316d82612f82565b6131778185612f8d565b93508360208202850161318985612f9e565b8060005b858110156131c557848403895281516131a68582613141565b94506131b183613155565b925060208a0199505060018101905061318d565b50829750879550505050505092915050565b600060208201905081810360008301526131f18184613162565b905092915050565b600080604083850312156132105761320f612eb7565b5b600061321e85828601612f0a565b925050602061322f85828601612f0a565b9150509250929050565b600081519050919050565b600082825260208201905092915050565b6000819050602082019050919050565b600060c08301600083015184820360008601526132828282613014565b9150506020830151848203602086015261329c8282613014565b91505060408301516132b16040860182613057565b50606083015184820360608601526132c98282613014565b91505060808301516132de6080860182613057565b5060a08301516132f160a0860182612fae565b508091505092915050565b60006133088383613265565b905092915050565b6000602082019050919050565b600061332882613239565b6133328185613244565b93508360208202850161334485613255565b8060005b85811015613380578484038952815161336185826132fc565b945061336c83613310565b925060208a01995050600181019050613348565b50829750879550505050505092915050565b600060208201905081810360008301526133ac818461331d565b905092915050565b600082825260208201905092915050565b60006133d082612fbd565b6133da81856133b4565b93506133ea818560208601612fd9565b6133f381613003565b840191505092915050565b6000602082019050818103600083015261341881846133c5565b905092915050565b6134298161304d565b811461343457600080fd5b50565b60008135905061344681613420565b92915050565b60006020828403121561346257613461612eb7565b5b600061347084828501613437565b91505092915050565b61348281612ee1565b82525050565b6134918161304d565b82525050565b6134a081613066565b82525050565b6000610100820190506134bc600083018b613479565b6134c9602083018a613479565b81810360408301526134db81896133c5565b90506134ea6060830188613488565b6134f76080830187613497565b61350460a0830186613488565b61351160c0830185612f58565b61351e60e0830184612f58565b9998505050505050505050565b61353481613066565b811461353f57600080fd5b50565b6000813590506135518161352b565b92915050565b6000806000606084860312156135705761356f612eb7565b5b600061357e86828701612f0a565b935050602061358f86828701613437565b92505060406135a086828701613542565b9150509250925092565b600080fd5b600080fd5b7f4e487b7100000000000000000000000000000000000000000000000000000000600052604160045260246000fd5b6135ec82613003565b810181811067ffffffffffffffff8211171561360b5761360a6135b4565b5b80604052505050565b600061361e612ead565b905061362a82826135e3565b919050565b600067ffffffffffffffff82111561364a576136496135b4565b5b61365382613003565b9050602081019050919050565b82818337600083830152505050565b600061368261367d8461362f565b613614565b90508281526020810184848401111561369e5761369d6135af565b5b6136a9848285613660565b509392505050565b600082601f8301126136c6576136c56135aa565b5b81356136d684826020860161366f565b91505092915050565b600080600080608085870312156136f9576136f8612eb7565b5b600085013567ffffffffffffffff81111561371757613716612ebc565b5b613723878288016136b1565b945050602085013567ffffffffffffffff81111561374457613743612ebc565b5b613750878288016136b1565b935050604061376187828801613437565b925050606085013567ffffffffffffffff81111561378257613781612ebc565b5b61378e878288016136b1565b91505092959194509250565b600080600080608085870312156137b4576137b3612eb7565b5b60006137c287828801612f0a565b945050602085013567ffffffffffffffff8111156137e3576137e2612ebc565b5b6137ef878288016136b1565b935050604061380087828801613437565b925050606061381187828801613542565b91505092959194509250565b60006020820190506138326000830184613497565b92915050565b7f4e6f74206120726567697374657265642070617469656e740000000000000000600082015250565b600061386e6018836133b4565b915061387982613838565b602082019050919050565b6000602082019050818103600083015261389d81613861565b9050919050565b7f4e487b7100000000000000000000000000000000000000000000000000000000600052603260045260246000fd5b7f4e487b7100000000000000000000000000000000000000000000000000000000600052602260045260246000fd5b6000600282049050600182168061391a57607f821691505b60208210810361392d5761392c6138d3565b5b50919050565b7f4e487b7100000000000000000000000000000000000000000000000000000000600052601160045260246000fd5b600061396d8261304d565b91507fffffffffffffffffffffffffffffffffffffffffffffffffffffffffffffffff820361399f5761399e613933565b5b600182019050919050565b7f4e6f2061636365737320746f2070617469656e74207265636f72647300000000600082015250565b60006139e0601c836133b4565b91506139eb826139aa565b602082019050919050565b60006020820190508181036000830152613a0f816139d3565b9050919050565b7f4e6f74207468652070617469656e740000000000000000000000000000000000600082015250565b6000613a4c600f836133b4565b9150613a5782613a16565b602082019050919050565b60006020820190508181036000830152613a7b81613a3f565b9050919050565b7f5265717565737420616c72656164792070726f63657373656400000000000000600082015250565b6000613ab86019836133b4565b9150613ac382613a82565b602082019050919050565b60006020820190508181036000830152613ae781613aab565b9050919050565b6000613af98261304d565b9150613b048361304d565b9250828201905080821115613b1c57613b1b613933565b5b92915050565b6000602082019050613b376000830184613488565b92915050565b7f416c7265616479207265676973746572656420617320646f63746f7200000000600082015250565b6000613b73601c836133b4565b9150613b7e82613b3d565b602082019050919050565b60006020820190508181036000830152613ba281613b66565b9050919050565b7f416c726561647920726567697374657265642061732072657365617263686572600082015250565b6000613bdf6020836133b4565b9150613bea82613ba9565b602082019050919050565b60006020820190508181036000830152613c0e81613bd2565b9050919050565b7f416c726561647920726567697374657265642061732070617469656e74000000600082015250565b6000613c4b601d836133b4565b9150613c5682613c15565b602082019050919050565b60006020820190508181036000830152613c7a81613c3e565b9050919050565b7f4772616e746565206d75737420626520726567697374657265642070726f666560008201527f7373696f6e616c00000000000000000000000000000000000000000000000000602082015250565b6000613cdd6027836133b4565b9150613ce882613c81565b604082019050919050565b60006020820190508181036000830152613d0c81613cd0565b9050919050565b7f496e76616c696420616363657373206c6576656c000000000000000000000000600082015250565b6000613d496014836133b4565b9150613d5482613d13565b602082019050919050565b60006020820190508181036000830152613d7881613d3c565b9050919050565b6000604082019050613d946000830185613488565b613da16020830184613497565b9392505050565b60008190508160005260206000209050919050565b60006020601f8301049050919050565b600082821b905092915050565b600060088302613e0a7fffffffffffffffffffffffffffffffffffffffffffffffffffffffffffffffff82613dcd565b613e148683613dcd565b95508019841693508086168417925050509392505050565b6000819050919050565b6000613e51613e4c613e478461304d565b613e2c565b61304d565b9050919050565b6000819050919050565b613e6b83613e36565b613e7f613e7782613e58565b848454613dda565b825550505050565b600090565b613e94613e87565b613e9f818484613e62565b505050565b5b81811015613ec357613eb8600082613e8c565b600181019050613ea5565b5050565b601f821115613f0857613ed981613da8565b613ee284613dbd565b81016020851015613ef1578190505b613f05613efd85613dbd565b830182613ea4565b50505b505050565b600082821c905092915050565b6000613f2b60001984600802613f0d565b1980831691505092915050565b6000613f448383613f1a565b9150826002028217905092915050565b613f5d82612fbd565b67ffffffffffffffff811115613f7657613f756135b4565b5b613f808254613902565b613f8b828285613ec7565b600060209050601f831160018114613fbe5760008415613fac578287015190505b613fb68582613f38565b86555061401e565b601f198416613fcc86613da8565b60005b82811015613ff457848901518255600182019150602085019450602081019050613fcf565b86831015614011578489015161400d601f891682613f1a565b8355505b6001600288020188555050505b505050505050565b60006140318261304d565b915061403c8361304d565b925082820390508181111561405457614053613933565b5b92915050565b600060408201905061406f6000830185613488565b818103602083015261408181846133c5565b90509392505050565b7f4e6f742061207265676973746572656420646f63746f72000000000000000000600082015250565b60006140c06017836133b4565b91506140cb8261408a565b602082019050919050565b600060208201905081810360008301526140ef816140b3565b9050919050565b7f50617469656e74206e6f74207265676973746572656400000000000000000000600082015250565b600061412c6016836133b4565b9150614137826140f6565b602082019050919050565b6000602082019050818103600083015261415b8161411f565b9050919050565b7f4e6f20616363657373206772616e746564000000000000000000000000000000600082015250565b60006141986011836133b4565b91506141a382614162565b602082019050919050565b600060208201905081810360008301526141c78161418b565b9050919050565b7f416c7265616479207265676973746572656420617320656d657267656e63792060008201527f726573706f6e6465720000000000000000000000000000000000000000000000602082015250565b600061422a6029836133b4565b9150614235826141ce565b604082019050919050565b600060208201905081810360008301526142598161421d565b905091905056fea2646970667358221220debd9faf90cb54d291b7e05b74fa398314ba1b76429493d176ad25255268124d64736f6c63430008130033",
  "linkReferences": {},
  "deployedLinkReferences": {}
}