{
  "_format": "hh-sol-artifact-1",
  "contractName": "MedicalRecordsStorage",
  "sourceName": "contracts/MedicalRecordsStorage.sol",
  "abi": [
    {
      "anonymous": false,
      "inputs": [
        {
          "indexed": true,
          "internalType": "address",
          "name": "patient",
          "type": "address"
        },
        {
          "indexed": true,
          "internalType": "address",
          "name": "grantee",
          "type": "address"
        },
        {
          "indexed": false,
          "internalType": "uint8",
          "name": "accessLevel",
          "type": "uint8"
        },
        {
          "indexed": false,
          "internalType": "uint256",
          "name": "expiresAt",
          "type": "uint256"
        }
      ],
      "name": "ConsentGranted",
      "type": "event"
    },
    {
      "anonymous": false,
      "inputs": [
        {
          "indexed": true,
          "internalType": "address",
          "name": "patient",
          "type": "address"
        },
        {
          "indexed": true,
          "internalType": "address",
          "name": "grantee",
          "type": "address"
        }
      ],
      "name": "ConsentRevoked",
      "type": "event"
    },
    {
      "anonymous": false,
      "inputs": [
        {
          "indexed": true,
          "internalType": "address",
          "name": "patient",
          "type": "address"
        },
        {
          "indexed": false,
          "internalType": "string",
          "name": "ipfsHash",
          "type": "string"
        },
        {
          "indexed": false,
          "internalType": "uint256",
          "name": "timestamp",
          "type": "uint256"
        },
        {
          "indexed": false,
          "internalType": "string",
          "name": "description",
          "type": "string"
        }
      ],
      "name": "RecordAdded",
      "type": "event"
    },
    {
      "anonymous": false,
      "inputs": [
        {
          "indexed": true,
          "internalType": "bytes32",
          "name": "role",
          "type": "bytes32"
        },
        {
          "indexed": true,
          "internalType": "bytes32",
          "name": "previousAdminRole",
          "type": "bytes32"
        },
        {
          "indexed": true,
          "internalType": "bytes32",
          "name": "newAdminRole",
          "type": "bytes32"
        }
      ],
      "name": "RoleAdminChanged",
      "type": "event"
    },
    {
      "anonymous": false,
      "inputs": [
        {
          "indexed": true,
          "internalType": "bytes32",
          "name": "role",
          "type": "bytes32"
        },
        {
          "indexed": true,
          "internalType": "address",
          "name": "account",
          "type": "address"
        },
        {
          "indexed": true,
          "internalType": "address",
          "name": "sender",
          "type": "address"
        }
      ],
      "name": "RoleGranted",
      "type": "event"
    },
    {
      "anonymous": false,
      "inputs": [
        {
          "indexed": true,
          "internalType": "bytes32",
          "name": "role",
          "type": "bytes32"
        },
        {
          "indexed": true,
          "internalType": "address",
          "name": "account",
          "type": "address"
        },
        {
          "indexed": true,
          "internalType": "address",
          "name": "sender",
          "type": "address"
        }
      ],
      "name": "RoleRevoked",
      "type": "event"
    },
    {
      "inputs": [],
      "name": "DEFAULT_ADMIN_ROLE",
      "outputs": [
        {
          "internalType": "bytes32",
          "name": "",
          "type": "bytes32"
        }
      ],
      "stateMutability": "view",
      "type": "function"
    },
    {
      "inputs": [],
      "name": "DOCTOR_ROLE",
      "outputs": [
        {
          "internalType": "bytes32",
          "name": "",
          "type": "bytes32"
        }
      ],
      "stateMutability": "view",
      "type": "function"
    },
    {
      "inputs": [],
      "name": "EMERGENCY_ROLE",
      "outputs": [
        {
          "internalType": "bytes32",
          "name": "",
          "type": "bytes32"
        }
      ],
      "stateMutability": "view",
      "type": "function"
    },
    {
      "inputs": [],
      "name": "PATIENT_ROLE",
      "outputs": [
        {
          "internalType": "bytes32",
          "name": "",
          "type": "bytes32"
        }
      ],
      "stateMutability": "view",
      "type": "function"
    },
    {
      "inputs": [],
      "name": "RESEARCHER_ROLE",
      "outputs": [
        {
          "internalType": "bytes32",
          "name": "",
          "type": "bytes32"
        }
      ],
      "stateMutability": "view",
      "type": "function"
    },
    {
      "inputs": [
        {
          "internalType": "string",
          "name": "ipfsHash",
          "type": "string"
        },
        {
          "internalType": "string",
          "name": "fileType",
          "type": "string"
        },
        {
          "internalType": "uint256",
          "name": "fileSize",
          "type": "uint256"
        },
        {
          "internalType": "string",
          "name": "description",
          "type": "string"
        }
      ],
      "name": "addMedicalRecord",
      "outputs": [],
      "stateMutability": "nonpayable",
      "type": "function"
    },
    {
      "inputs": [
        {
          "internalType": "address",
          "name": "",
          "type": "address"
        },
        {
          "internalType": "address",
          "name": "",
          "type": "address"
        }
      ],
      "name": "consents",
      "outputs": [
        {
          "internalType": "address",
          "name": "grantee",
          "type": "address"
        },
        {
          "internalType": "uint256",
          "name": "expiresAt",
          "type": "uint256"
        },
        {
          "internalType": "uint8",
          "name": "accessLevel",
          "type": "uint8"
        },
        {
          "internalType": "bool",
          "name": "isActive",
          "type": "bool"
        },
        {
          "internalType": "uint256",
          "name": "grantedAt",
          "type": "uint256"
        }
      ],
      "stateMutability": "view",
      "type": "function"
    },
    {
      "inputs": [],
      "name": "getMyRecords",
      "outputs": [
        {
          "components": [
            {
              "internalType": "string",
              "name": "ipfsHash",
              "type": "string"
            },
            {
              "internalType": "address",
              "name": "patient",
              "type": "address"
            },
            {
              "internalType": "uint256",
              "name": "timestamp",
              "type": "uint256"
            },
            {
              "internalType": "string",
              "name": "fileType",
              "type": "string"
            },
            {
              "internalType": "uint256",
              "name": "fileSize",
              "type": "uint256"
            },
            {
              "internalType": "string",
              "name": "description",
              "type": "string"
            }
          ],
          "internalType": "struct MedicalRecordsStorage.MedicalRecord[]",
          "name": "",
          "type": "tuple[]"
        }
      ],
      "stateMutability": "view",
      "type": "function"
    },
    {
      "inputs": [
        {
          "internalType": "bytes32",
          "name": "role",
          "type": "bytes32"
        }
      ],
      "name": "getRoleAdmin",
      "outputs": [
        {
          "internalType": "bytes32",
          "name": "",
          "type": "bytes32"
        }
      ],
      "stateMutability": "view",
      "type": "function"
    },
    {
      "inputs": [
        {
          "internalType": "address",
          "name": "grantee",
          "type": "address"
        },
        {
          "internalType": "uint256",
          "name": "duration",
          "type": "uint256"
        },
        {
          "internalType": "uint8",
          "name": "accessLevel",
          "type": "uint8"
        }
      ],
      "name": "grantConsent",
      "outputs": [],
      "stateMutability": "nonpayable",
      "type": "function"
    },
    {
      "inputs": [
        {
          "internalType": "bytes32",
          "name": "role",
          "type": "bytes32"
        },
        {
          "internalType": "address",
          "name": "account",
          "type": "address"
        }
      ],
      "name": "grantRole",
      "outputs": [],
      "stateMutability": "nonpayable",
      "type": "function"
    },
    {
      "inputs": [
        {
          "internalType": "address",
          "name": "user",
          "type": "address"
        }
      ],
      "name": "hasResearchAccess",
      "outputs": [
        {
          "internalType": "bool",
          "name": "",
          "type": "bool"
        }
      ],
      "stateMutability": "view",
      "type": "function"
    },
    {
      "inputs": [
        {
          "internalType": "bytes32",
          "name": "role",
          "type": "bytes32"
        },
        {
          "internalType": "address",
          "name": "account",
          "type": "address"
        }
      ],
      "name": "hasRole",
      "outputs": [
        {
          "internalType": "bool",
          "name": "",
          "type": "bool"
        }
      ],
      "stateMutability": "view",
      "type": "function"
    },
    {
      "inputs": [
        {
          "internalType": "address",
          "name": "account",
          "type": "address"
        }
      ],
      "name": "isDoctor",
      "outputs": [
        {
          "internalType": "bool",
          "name": "",
          "type": "bool"
        }
      ],
      "stateMutability": "view",
      "type": "function"
    },
    {
      "inputs": [
        {
          "internalType": "address",
          "name": "account",
          "type": "address"
        }
      ],
      "name": "isEmergencyResponder",
      "outputs": [
        {
          "internalType": "bool",
          "name": "",
          "type": "bool"
        }
      ],
      "stateMutability": "view",
      "type": "function"
    },
    {
      "inputs": [
        {
          "internalType": "address",
          "name": "account",
          "type": "address"
        }
      ],
      "name": "isPatient",
      "outputs": [
        {
          "internalType": "bool",
          "name": "",
          "type": "bool"
        }
      ],
      "stateMutability": "view",
      "type": "function"
    },
    {
      "inputs": [
        {
          "internalType": "address",
          "name": "account",
          "type": "address"
        }
      ],
      "name": "isResearcher",
      "outputs": [
        {
          "internalType": "bool",
          "name": "",
          "type": "bool"
        }
      ],
      "stateMutability": "view",
      "type": "function"
    },
    {
      "inputs": [],
      "name": "registerAsDoctor",
      "outputs": [],
      "stateMutability": "nonpayable",
      "type": "function"
    },
    {
      "inputs": [],
      "name": "registerAsEmergencyResponder",
      "outputs": [],
      "stateMutability": "nonpayable",
      "type": "function"
    },
    {
      "inputs": [],
      "name": "registerAsPatient",
      "outputs": [],
      "stateMutability": "nonpayable",
      "type": "function"
    },
    {
      "inputs": [],
      "name": "registerAsResearcher",
      "outputs": [],
      "stateMutability": "nonpayable",
      "type": "function"
    },
    {
      "inputs": [
        {
          "internalType": "bytes32",
          "name": "role",
          "type": "bytes32"
        },
        {
          "internalType": "address",
          "name": "account",
          "type": "address"
        }
      ],
      "name": "renounceRole",
      "outputs": [],
      "stateMutability": "nonpayable",
      "type": "function"
    },
    {
      "inputs": [],
      "name": "researchToken",
      "outputs": [
        {
          "internalType": "contract IERC721",
          "name": "",
          "type": "address"
        }
      ],
      "stateMutability": "view",
      "type": "function"
    },
    {
      "inputs": [
        {
          "internalType": "address",
          "name": "grantee",
          "type": "address"
        }
      ],
      "name": "revokeConsent",
      "outputs": [],
      "stateMutability": "nonpayable",
      "type": "function"
    },
    {
      "inputs": [
        {
          "internalType": "bytes32",
          "name": "role",
          "type": "bytes32"
        },
        {
          "internalType": "address",
          "name": "account",
          "type": "address"
        }
      ],
      "name": "revokeRole",
      "outputs": [],
      "stateMutability": "nonpayable",
      "type": "function"
    },
    {
      "inputs": [
        {
          "internalType": "address",
          "name": "tokenAddress",
          "type": "address"
        }
      ],
      "name": "setResearchToken",
      "outputs": [],
      "stateMutability": "nonpayable",
      "type": "function"
    },
    {
      "inputs": [
        {
          "internalType": "bytes4",
          "name": "interfaceId",
          "type": "bytes4"
        }
      ],
      "name": "supportsInterface",
      "outputs": [
        {
          "internalType": "bool",
          "name": "",
          "type": "bool"
        }
      ],
      "stateMutability": "view",
      "type": "function"
    }
  ],
  "bytecode": "0x60806040523480156200001157600080fd5b50620000276000801b336200002d60201b60201c565b62000190565b6200003f82826200011e60201b60201c565b6200011a57600160008084815260200190815260200160002060000160008373ffffffffffffffffffffffffffffffffffffffff1673ffffffffffffffffffffffffffffffffffffffff16815260200190815260200160002060006101000a81548160ff021916908315150217905550620000bf6200018860201b60201c565b73ffffffffffffffffffffffffffffffffffffffff168173ffffffffffffffffffffffffffffffffffffffff16837f2f8788117e7eff1d82e926ec794901d17c78024a50270940304540a733656f0d60405160405180910390a45b5050565b600080600084815260200190815260200160002060000160008373ffffffffffffffffffffffffffffffffffffffff1673ffffffffffffffffffffffffffffffffffffffff16815260200190815260200160002060009054906101000a900460ff16905092915050565b600033905090565b612adb80620001a06000396000f3fe608060405234801561001057600080fd5b50600436106101a95760003560e01c806391d14854116100f9578063ccdaab0911610097578063d547741f11610071578063d547741f146104be578063e76637ce146104da578063f23d5b27146104f8578063fec331f214610502576101a9565b8063ccdaab091461046a578063d1a4862714610486578063d27df507146104a2576101a9565b8063a99ad4ee116100d3578063a99ad4ee146103f2578063ac5cb97d146103fc578063ae83af551461041a578063c123bb101461044e576101a9565b806391d1485414610374578063996440c6146103a4578063a217fddf146103d4576101a9565b8063363fdebd1161016657806350f2aab31161014057806350f2aab3146103125780636ba7fe7f146103305780638d38ad1d1461033a5780638f9c79ed14610344576101a9565b8063363fdebd1461029657806336568abe146102c65780634c4f9312146102e2576101a9565b806301ffc9a7146101ae57806315c47e60146101de5780631f5c9057146101fc57806320df43591461022c578063248a9ca31461024a5780632f2ff15d1461027a575b600080fd5b6101c860048036038101906101c39190611a11565b610520565b6040516101d59190611a59565b60405180910390f35b6101e661059a565b6040516101f39190611af3565b60405180910390f35b61021660048036038101906102119190611b4c565b6105c0565b6040516102239190611a59565b60405180910390f35b6102346105f3565b6040516102419190611b92565b60405180910390f35b610264600480360381019061025f9190611bd9565b610617565b6040516102719190611b92565b60405180910390f35b610294600480360381019061028f9190611c06565b610636565b005b6102b060048036038101906102ab9190611b4c565b610657565b6040516102bd9190611a59565b60405180910390f35b6102e060048036038101906102db9190611c06565b61068a565b005b6102fc60048036038101906102f79190611b4c565b61070d565b6040516103099190611a59565b60405180910390f35b61031a61080f565b6040516103279190611b92565b60405180910390f35b610338610833565b005b6103426108c9565b005b61035e60048036038101906103599190611b4c565b61095f565b60405161036b9190611a59565b60405180910390f35b61038e60048036038101906103899190611c06565b610992565b60405161039b9190611a59565b60405180910390f35b6103be60048036038101906103b99190611b4c565b6109fc565b6040516103cb9190611a59565b60405180910390f35b6103dc610a2f565b6040516103e99190611b92565b60405180910390f35b6103fa610a36565b005b610404610acc565b6040516104119190611b92565b60405180910390f35b610434600480360381019061042f9190611c46565b610af0565b604051610445959493929190611cca565b60405180910390f35b61046860048036038101906104639190611d75565b610b6d565b005b610484600480360381019061047f9190611f0e565b610d94565b005b6104a0600480360381019061049b9190611b4c565b610f67565b005b6104bc60048036038101906104b79190611b4c565b611087565b005b6104d860048036038101906104d39190611c06565b6110d9565b005b6104e26110fa565b6040516104ef91906121bf565b60405180910390f35b6105006113b6565b005b61050a61144c565b6040516105179190611b92565b60405180910390f35b60007f7965db0b000000000000000000000000000000000000000000000000000000007bffffffffffffffffffffffffffffffffffffffffffffffffffffffff1916827bffffffffffffffffffffffffffffffffffffffffffffffffffffffff19161480610593575061059282611470565b5b9050919050565b600160009054906101000a900473ffffffffffffffffffffffffffffffffffffffff1681565b60006105ec7fbf233dd2aafeb4d50879c4aa5c81e96d92f6e6945c906a58f9f2d1c1631b4b2683610992565b9050919050565b7fbf233dd2aafeb4d50879c4aa5c81e96d92f6e6945c906a58f9f2d1c1631b4b2681565b6000806000838152602001908152602001600020600101549050919050565b61063f82610617565b610648816114da565b61065283836114ee565b505050565b60006106837f7765bfe615aab9fb9a16bd4c5c9b353f39dae79ca7da86094b0a74ea8a89e59a83610992565b9050919050565b6106926115ce565b73ffffffffffffffffffffffffffffffffffffffff168173ffffffffffffffffffffffffffffffffffffffff16146106ff576040517f08c379a00000000000000000000000000000000000000000000000000000000081526004016106f690612264565b60405180910390fd5b61070982826115d6565b5050565b60008073ffffffffffffffffffffffffffffffffffffffff16600160009054906101000a900473ffffffffffffffffffffffffffffffffffffffff1673ffffffffffffffffffffffffffffffffffffffff161415801561080857506000600160009054906101000a900473ffffffffffffffffffffffffffffffffffffffff1673ffffffffffffffffffffffffffffffffffffffff166370a08231846040518263ffffffff1660e01b81526004016107c59190612284565b602060405180830381865afa1580156107e2573d6000803e3d6000fd5b505050506040513d601f19601f8201168201806040525081019061080691906122b4565b115b9050919050565b7f7765bfe615aab9fb9a16bd4c5c9b353f39dae79ca7da86094b0a74ea8a89e59a81565b61085d7f0af1dac7dea2fd7f7738119cec7df099dfad49aa9d2e7d17ba6b60f63ae7411f33610992565b1561089d576040517f08c379a00000000000000000000000000000000000000000000000000000000081526004016108949061232d565b60405180910390fd5b6108c77f0af1dac7dea2fd7f7738119cec7df099dfad49aa9d2e7d17ba6b60f63ae7411f336114ee565b565b6108f37f7765bfe615aab9fb9a16bd4c5c9b353f39dae79ca7da86094b0a74ea8a89e59a33610992565b15610933576040517f08c379a000000000000000000000000000000000000000000000000000000000815260040161092a90612399565b60405180910390fd5b61095d7f7765bfe615aab9fb9a16bd4c5c9b353f39dae79ca7da86094b0a74ea8a89e59a336114ee565b565b600061098b7f72606200fac42b7dc86b75901d61ecfab2a4a1a6eded478b97a428094891abed83610992565b9050919050565b600080600084815260200190815260200160002060000160008373ffffffffffffffffffffffffffffffffffffffff1673ffffffffffffffffffffffffffffffffffffffff16815260200190815260200160002060009054906101000a900460ff16905092915050565b6000610a287f0af1dac7dea2fd7f7738119cec7df099dfad49aa9d2e7d17ba6b60f63ae7411f83610992565b9050919050565b6000801b81565b610a607f72606200fac42b7dc86b75901d61ecfab2a4a1a6eded478b97a428094891abed33610992565b15610aa0576040517f08c379a0000000000000000000000000000000000000000000000000000000008152600401610a9790612405565b60405180910390fd5b610aca7f72606200fac42b7dc86b75901d61ecfab2a4a1a6eded478b97a428094891abed336114ee565b565b7f72606200fac42b7dc86b75901d61ecfab2a4a1a6eded478b97a428094891abed81565b6003602052816000526040600020602052806000526040600020600091509150508060000160009054906101000a900473ffffffffffffffffffffffffffffffffffffffff16908060010154908060020160009054906101000a900460ff16908060020160019054906101000a900460ff16908060030154905085565b7f72606200fac42b7dc86b75901d61ecfab2a4a1a6eded478b97a428094891abed610b97816114da565b6040518060a001604052808573ffffffffffffffffffffffffffffffffffffffff1681526020016201518085610bcd9190612454565b42610bd89190612496565b81526020018360ff16815260200160011515815260200142815250600360003373ffffffffffffffffffffffffffffffffffffffff1673ffffffffffffffffffffffffffffffffffffffff16815260200190815260200160002060008673ffffffffffffffffffffffffffffffffffffffff1673ffffffffffffffffffffffffffffffffffffffff16815260200190815260200160002060008201518160000160006101000a81548173ffffffffffffffffffffffffffffffffffffffff021916908373ffffffffffffffffffffffffffffffffffffffff1602179055506020820151816001015560408201518160020160006101000a81548160ff021916908360ff16021790555060608201518160020160016101000a81548160ff021916908315150217905550608082015181600301559050508373ffffffffffffffffffffffffffffffffffffffff163373ffffffffffffffffffffffffffffffffffffffff167fb488760631b7b3a509c146306d32501619b9df1e06d736b2b528a9110d844b34846201518087610d6d9190612454565b42610d789190612496565b604051610d869291906124ca565b60405180910390a350505050565b7f72606200fac42b7dc86b75901d61ecfab2a4a1a6eded478b97a428094891abed610dbe816114da565b60006040518060c001604052808781526020013373ffffffffffffffffffffffffffffffffffffffff168152602001428152602001868152602001858152602001848152509050600260003373ffffffffffffffffffffffffffffffffffffffff1673ffffffffffffffffffffffffffffffffffffffff1681526020019081526020016000208190806001815401808255809150506001900390600052602060002090600602016000909190919091506000820151816000019081610e8391906126f5565b5060208201518160010160006101000a81548173ffffffffffffffffffffffffffffffffffffffff021916908373ffffffffffffffffffffffffffffffffffffffff160217905550604082015181600201556060820151816003019081610eea91906126f5565b506080820151816004015560a0820151816005019081610f0a91906126f5565b5050503373ffffffffffffffffffffffffffffffffffffffff167fd9acf4f586f3b83d7a3c949df2606cf9887c3fcda27a007cc36299ce86c42ca5874286604051610f5793929190612800565b60405180910390a2505050505050565b7f72606200fac42b7dc86b75901d61ecfab2a4a1a6eded478b97a428094891abed610f91816114da565b6000600360003373ffffffffffffffffffffffffffffffffffffffff1673ffffffffffffffffffffffffffffffffffffffff16815260200190815260200160002060008473ffffffffffffffffffffffffffffffffffffffff1673ffffffffffffffffffffffffffffffffffffffff16815260200190815260200160002060020160016101000a81548160ff0219169083151502179055508173ffffffffffffffffffffffffffffffffffffffff163373ffffffffffffffffffffffffffffffffffffffff167febecee2d3f2ea272f73dd9d9ccc0bacd11280d61240332cbcd8a68173ae5cc2c60405160405180910390a35050565b6000801b611094816114da565b81600160006101000a81548173ffffffffffffffffffffffffffffffffffffffff021916908373ffffffffffffffffffffffffffffffffffffffff1602179055505050565b6110e282610617565b6110eb816114da565b6110f583836115d6565b505050565b6060600260003373ffffffffffffffffffffffffffffffffffffffff1673ffffffffffffffffffffffffffffffffffffffff168152602001908152602001600020805480602002602001604051908101604052809291908181526020016000905b828210156113ad57838290600052602060002090600602016040518060c001604052908160008201805461118e90612522565b80601f01602080910402602001604051908101604052809291908181526020018280546111ba90612522565b80156112075780601f106111dc57610100808354040283529160200191611207565b820191906000526020600020905b8154815290600101906020018083116111ea57829003601f168201915b505050505081526020016001820160009054906101000a900473ffffffffffffffffffffffffffffffffffffffff1673ffffffffffffffffffffffffffffffffffffffff1673ffffffffffffffffffffffffffffffffffffffff1681526020016002820154815260200160038201805461128090612522565b80601f01602080910402602001604051908101604052809291908181526020018280546112ac90612522565b80156112f95780601f106112ce576101008083540402835291602001916112f9565b820191906000526020600020905b8154815290600101906020018083116112dc57829003601f168201915b505050505081526020016004820154815260200160058201805461131c90612522565b80601f016020809104026020016040519081016040528092919081815260200182805461134890612522565b80156113955780601f1061136a57610100808354040283529160200191611395565b820191906000526020600020905b81548152906001019060200180831161137857829003601f168201915b5050505050815250508152602001906001019061115b565b50505050905090565b6113e07fbf233dd2aafeb4d50879c4aa5c81e96d92f6e6945c906a58f9f2d1c1631b4b2633610992565b15611420576040517f08c379a000000000000000000000000000000000000000000000000000000000815260040161141790612891565b60405180910390fd5b61144a7fbf233dd2aafeb4d50879c4aa5c81e96d92f6e6945c906a58f9f2d1c1631b4b26336114ee565b565b7f0af1dac7dea2fd7f7738119cec7df099dfad49aa9d2e7d17ba6b60f63ae7411f81565b60007f01ffc9a7000000000000000000000000000000000000000000000000000000007bffffffffffffffffffffffffffffffffffffffffffffffffffffffff1916827bffffffffffffffffffffffffffffffffffffffffffffffffffffffff1916149050919050565b6114eb816114e66115ce565b6116b7565b50565b6114f88282610992565b6115ca57600160008084815260200190815260200160002060000160008373ffffffffffffffffffffffffffffffffffffffff1673ffffffffffffffffffffffffffffffffffffffff16815260200190815260200160002060006101000a81548160ff02191690831515021790555061156f6115ce565b73ffffffffffffffffffffffffffffffffffffffff168173ffffffffffffffffffffffffffffffffffffffff16837f2f8788117e7eff1d82e926ec794901d17c78024a50270940304540a733656f0d60405160405180910390a45b5050565b600033905090565b6115e08282610992565b156116b357600080600084815260200190815260200160002060000160008373ffffffffffffffffffffffffffffffffffffffff1673ffffffffffffffffffffffffffffffffffffffff16815260200190815260200160002060006101000a81548160ff0219169083151502179055506116586115ce565b73ffffffffffffffffffffffffffffffffffffffff168173ffffffffffffffffffffffffffffffffffffffff16837ff6391f5c32d9c69d2a47ea670b442974b53935d1edc7fd64eb21e047a839171b60405160405180910390a45b5050565b6116c18282610992565b611738576116ce8161173c565b6116dc8360001c6020611769565b6040516020016116ed929190612985565b6040516020818303038152906040526040517f08c379a000000000000000000000000000000000000000000000000000000000815260040161172f91906129bf565b60405180910390fd5b5050565b60606117628273ffffffffffffffffffffffffffffffffffffffff16601460ff16611769565b9050919050565b60606000600283600261177c9190612454565b6117869190612496565b67ffffffffffffffff81111561179f5761179e611de3565b5b6040519080825280601f01601f1916602001820160405280156117d15781602001600182028036833780820191505090505b5090507f300000000000000000000000000000000000000000000000000000000000000081600081518110611809576118086129e1565b5b60200101907effffffffffffffffffffffffffffffffffffffffffffffffffffffffffffff1916908160001a9053507f78000000000000000000000000000000000000000000000000000000000000008160018151811061186d5761186c6129e1565b5b60200101907effffffffffffffffffffffffffffffffffffffffffffffffffffffffffffff1916908160001a905350600060018460026118ad9190612454565b6118b79190612496565b90505b6001811115611957577f3031323334353637383961626364656600000000000000000000000000000000600f8616601081106118f9576118f86129e1565b5b1a60f81b8282815181106119105761190f6129e1565b5b60200101907effffffffffffffffffffffffffffffffffffffffffffffffffffffffffffff1916908160001a905350600485901c94508061195090612a10565b90506118ba565b506000841461199b576040517f08c379a000000000000000000000000000000000000000000000000000000000815260040161199290612a85565b60405180910390fd5b8091505092915050565b6000604051905090565b600080fd5b600080fd5b60007fffffffff0000000000000000000000000000000000000000000000000000000082169050919050565b6119ee816119b9565b81146119f957600080fd5b50565b600081359050611a0b816119e5565b92915050565b600060208284031215611a2757611a266119af565b5b6000611a35848285016119fc565b91505092915050565b60008115159050919050565b611a5381611a3e565b82525050565b6000602082019050611a6e6000830184611a4a565b92915050565b600073ffffffffffffffffffffffffffffffffffffffff82169050919050565b6000819050919050565b6000611ab9611ab4611aaf84611a74565b611a94565b611a74565b9050919050565b6000611acb82611a9e565b9050919050565b6000611add82611ac0565b9050919050565b611aed81611ad2565b82525050565b6000602082019050611b086000830184611ae4565b92915050565b6000611b1982611a74565b9050919050565b611b2981611b0e565b8114611b3457600080fd5b50565b600081359050611b4681611b20565b92915050565b600060208284031215611b6257611b616119af565b5b6000611b7084828501611b37565b91505092915050565b6000819050919050565b611b8c81611b79565b82525050565b6000602082019050611ba76000830184611b83565b92915050565b611bb681611b79565b8114611bc157600080fd5b50565b600081359050611bd381611bad565b92915050565b600060208284031215611bef57611bee6119af565b5b6000611bfd84828501611bc4565b91505092915050565b60008060408385031215611c1d57611c1c6119af565b5b6000611c2b85828601611bc4565b9250506020611c3c85828601611b37565b9150509250929050565b60008060408385031215611c5d57611c5c6119af565b5b6000611c6b85828601611b37565b9250506020611c7c85828601611b37565b9150509250929050565b611c8f81611b0e565b82525050565b6000819050919050565b611ca881611c95565b82525050565b600060ff82169050919050565b611cc481611cae565b82525050565b600060a082019050611cdf6000830188611c86565b611cec6020830187611c9f565b611cf96040830186611cbb565b611d066060830185611a4a565b611d136080830184611c9f565b9695505050505050565b611d2681611c95565b8114611d3157600080fd5b50565b600081359050611d4381611d1d565b92915050565b611d5281611cae565b8114611d5d57600080fd5b50565b600081359050611d6f81611d49565b92915050565b600080600060608486031215611d8e57611d8d6119af565b5b6000611d9c86828701611b37565b9350506020611dad86828701611d34565b9250506040611dbe86828701611d60565b9150509250925092565b600080fd5b600080fd5b6000601f19601f8301169050919050565b7f4e487b7100000000000000000000000000000000000000000000000000000000600052604160045260246000fd5b611e1b82611dd2565b810181811067ffffffffffffffff82111715611e3a57611e39611de3565b5b80604052505050565b6000611e4d6119a5565b9050611e598282611e12565b919050565b600067ffffffffffffffff821115611e7957611e78611de3565b5b611e8282611dd2565b9050602081019050919050565b82818337600083830152505050565b6000611eb1611eac84611e5e565b611e43565b905082815260208101848484011115611ecd57611ecc611dcd565b5b611ed8848285611e8f565b509392505050565b600082601f830112611ef557611ef4611dc8565b5b8135611f05848260208601611e9e565b91505092915050565b60008060008060808587031215611f2857611f276119af565b5b600085013567ffffffffffffffff811115611f4657611f456119b4565b5b611f5287828801611ee0565b945050602085013567ffffffffffffffff811115611f7357611f726119b4565b5b611f7f87828801611ee0565b9350506040611f9087828801611d34565b925050606085013567ffffffffffffffff811115611fb157611fb06119b4565b5b611fbd87828801611ee0565b91505092959194509250565b600081519050919050565b600082825260208201905092915050565b6000819050602082019050919050565b600081519050919050565b600082825260208201905092915050565b60005b8381101561202f578082015181840152602081019050612014565b60008484015250505050565b600061204682611ff5565b6120508185612000565b9350612060818560208601612011565b61206981611dd2565b840191505092915050565b61207d81611b0e565b82525050565b61208c81611c95565b82525050565b600060c08301600083015184820360008601526120af828261203b565b91505060208301516120c46020860182612074565b5060408301516120d76040860182612083565b50606083015184820360608601526120ef828261203b565b91505060808301516121046080860182612083565b5060a083015184820360a086015261211c828261203b565b9150508091505092915050565b60006121358383612092565b905092915050565b6000602082019050919050565b600061215582611fc9565b61215f8185611fd4565b93508360208202850161217185611fe5565b8060005b858110156121ad578484038952815161218e8582612129565b94506121998361213d565b925060208a01995050600181019050612175565b50829750879550505050505092915050565b600060208201905081810360008301526121d9818461214a565b905092915050565b600082825260208201905092915050565b7f416363657373436f6e74726f6c3a2063616e206f6e6c792072656e6f756e636560008201527f20726f6c657320666f722073656c660000000000000000000000000000000000602082015250565b600061224e602f836121e1565b9150612259826121f2565b604082019050919050565b6000602082019050818103600083015261227d81612241565b9050919050565b60006020820190506122996000830184611c86565b92915050565b6000815190506122ae81611d1d565b92915050565b6000602082840312156122ca576122c96119af565b5b60006122d88482850161229f565b91505092915050565b7f416c7265616479207265676973746572656420617320446f63746f7200000000600082015250565b6000612317601c836121e1565b9150612322826122e1565b602082019050919050565b600060208201905081810360008301526123468161230a565b9050919050565b7f416c726561647920726567697374657265642061732052657365617263686572600082015250565b60006123836020836121e1565b915061238e8261234d565b602082019050919050565b600060208201905081810360008301526123b281612376565b9050919050565b7f416c726561647920726567697374657265642061732050617469656e74000000600082015250565b60006123ef601d836121e1565b91506123fa826123b9565b602082019050919050565b6000602082019050818103600083015261241e816123e2565b9050919050565b7f4e487b7100000000000000000000000000000000000000000000000000000000600052601160045260246000fd5b600061245f82611c95565b915061246a83611c95565b925082820261247881611c95565b9150828204841483151761248f5761248e612425565b5b5092915050565b60006124a182611c95565b91506124ac83611c95565b92508282019050808211156124c4576124c3612425565b5b92915050565b60006040820190506124df6000830185611cbb565b6124ec6020830184611c9f565b9392505050565b7f4e487b7100000000000000000000000000000000000000000000000000000000600052602260045260246000fd5b6000600282049050600182168061253a57607f821691505b60208210810361254d5761254c6124f3565b5b50919050565b60008190508160005260206000209050919050565b60006020601f8301049050919050565b600082821b905092915050565b6000600883026125b57fffffffffffffffffffffffffffffffffffffffffffffffffffffffffffffffff82612578565b6125bf8683612578565b95508019841693508086168417925050509392505050565b60006125f26125ed6125e884611c95565b611a94565b611c95565b9050919050565b6000819050919050565b61260c836125d7565b612620612618826125f9565b848454612585565b825550505050565b600090565b612635612628565b612640818484612603565b505050565b5b818110156126645761265960008261262d565b600181019050612646565b5050565b601f8211156126a95761267a81612553565b61268384612568565b81016020851015612692578190505b6126a661269e85612568565b830182612645565b50505b505050565b600082821c905092915050565b60006126cc600019846008026126ae565b1980831691505092915050565b60006126e583836126bb565b9150826002028217905092915050565b6126fe82611ff5565b67ffffffffffffffff81111561271757612716611de3565b5b6127218254612522565b61272c828285612668565b600060209050601f83116001811461275f576000841561274d578287015190505b61275785826126d9565b8655506127bf565b601f19841661276d86612553565b60005b8281101561279557848901518255600182019150602085019450602081019050612770565b868310156127b257848901516127ae601f8916826126bb565b8355505b6001600288020188555050505b505050505050565b60006127d282611ff5565b6127dc81856121e1565b93506127ec818560208601612011565b6127f581611dd2565b840191505092915050565b6000606082019050818103600083015261281a81866127c7565b90506128296020830185611c9f565b818103604083015261283b81846127c7565b9050949350505050565b7f416c7265616479207265676973746572656420617320456d657267656e637900600082015250565b600061287b601f836121e1565b915061288682612845565b602082019050919050565b600060208201905081810360008301526128aa8161286e565b9050919050565b600081905092915050565b7f416363657373436f6e74726f6c3a206163636f756e7420000000000000000000600082015250565b60006128f26017836128b1565b91506128fd826128bc565b601782019050919050565b600061291382611ff5565b61291d81856128b1565b935061292d818560208601612011565b80840191505092915050565b7f206973206d697373696e6720726f6c6520000000000000000000000000000000600082015250565b600061296f6011836128b1565b915061297a82612939565b601182019050919050565b6000612990826128e5565b915061299c8285612908565b91506129a782612962565b91506129b38284612908565b91508190509392505050565b600060208201905081810360008301526129d981846127c7565b905092915050565b7f4e487b7100000000000000000000000000000000000000000000000000000000600052603260045260246000fd5b6000612a1b82611c95565b915060008203612a2e57612a2d612425565b5b600182039050919050565b7f537472696e67733a20686578206c656e67746820696e73756666696369656e74600082015250565b6000612a6f6020836121e1565b9150612a7a82612a39565b602082019050919050565b60006020820190508181036000830152612a9e81612a62565b905091905056fea26469706673582212206e85e12b6467d5819a1a03c5c1f2dbe6abbcd69a804bfef7356d83703aa8881564736f6c63430008130033",
  "linkReferences": {},
  "deployedLinkReferences": {}
}