{
  "_format": "hh-sol-artifact-1",
  "contractName": "ResearchAccessToken",
  "sourceName": "contracts/ResearchAccessToken.sol",
  "abi": [
    {
      "inputs": [],
      "stateMutability": "nonpayable",
      "type": "constructor"
    },
    {
      "anonymous": false,
      "inputs": [
        {
          "indexed": true,
          "internalType": "address",
          "name": "owner",
          "type": "address"
        },
        {
          "indexed": true,
          "internalType": "address",
          "name": "approved",
          "type": "address"
        },
        {
          "indexed": true,
          "internalType": "uint256",
          "name": "tokenId",
          "type": "uint256"
        }
      ],
      "name": "Approval",
      "type": "event"
    },
    {
      "anonymous": false,
      "inputs": [
        {
          "indexed": true,
          "internalType": "address",
          "name": "owner",
          "type": "address"
        },
        {
          "indexed": true,
          "internalType": "address",
          "name": "operator",
          "type": "address"
        },
        {
          "indexed": false,
          "internalType": "bool",
          "name": "approved",
          "type": "bool"
        }
      ],
      "name": "ApprovalForAll",
      "type": "event"
    },
    {
      "anonymous": false,
      "inputs": [
        {
          "indexed": true,
          "internalType": "bytes32",
          "name": "role",
          "type": "bytes32"
        },
        {
          "indexed": true,
          "internalType": "bytes32",
          "name": "previousAdminRole",
          "type": "bytes32"
        },
        {
          "indexed": true,
          "internalType": "bytes32",
          "name": "newAdminRole",
          "type": "bytes32"
        }
      ],
      "name": "RoleAdminChanged",
      "type": "event"
    },
    {
      "anonymous": false,
      "inputs": [
        {
          "indexed": true,
          "internalType": "bytes32",
          "name": "role",
          "type": "bytes32"
        },
        {
          "indexed": true,
          "internalType": "address",
          "name": "account",
          "type": "address"
        },
        {
          "indexed": true,
          "internalType": "address",
          "name": "sender",
          "type": "address"
        }
      ],
      "name": "RoleGranted",
      "type": "event"
    },
    {
      "anonymous": false,
      "inputs": [
        {
          "indexed": true,
          "internalType": "bytes32",
          "name": "role",
          "type": "bytes32"
        },
        {
          "indexed": true,
          "internalType": "address",
          "name": "account",
          "type": "address"
        },
        {
          "indexed": true,
          "internalType": "address",
          "name": "sender",
          "type": "address"
        }
      ],
      "name": "RoleRevoked",
      "type": "event"
    },
    {
      "anonymous": false,
      "inputs": [
        {
          "indexed": true,
          "internalType": "address",
          "name": "from",
          "type": "address"
        },
        {
          "indexed": true,
          "internalType": "address",
          "name": "to",
          "type": "address"
        },
        {
          "indexed": true,
          "internalType": "uint256",
          "name": "tokenId",
          "type": "uint256"
        }
      ],
      "name": "Transfer",
      "type": "event"
    },
    {
      "inputs": [],
      "name": "ADMIN_ROLE",
      "outputs": [
        {
          "internalType": "bytes32",
          "name": "",
          "type": "bytes32"
        }
      ],
      "stateMutability": "view",
      "type": "function"
    },
    {
      "inputs": [],
      "name": "DEFAULT_ADMIN_ROLE",
      "outputs": [
        {
          "internalType": "bytes32",
          "name": "",
          "type": "bytes32"
        }
      ],
      "stateMutability": "view",
      "type": "function"
    },
    {
      "inputs": [
        {
          "internalType": "address",
          "name": "to",
          "type": "address"
        },
        {
          "internalType": "uint256",
          "name": "tokenId",
          "type": "uint256"
        }
      ],
      "name": "approve",
      "outputs": [],
      "stateMutability": "nonpayable",
      "type": "function"
    },
    {
      "inputs": [
        {
          "internalType": "address",
          "name": "owner",
          "type": "address"
        }
      ],
      "name": "balanceOf",
      "outputs": [
        {
          "internalType": "uint256",
          "name": "",
          "type": "uint256"
        }
      ],
      "stateMutability": "view",
      "type": "function"
    },
    {
      "inputs": [
        {
          "internalType": "uint256",
          "name": "tokenId",
          "type": "uint256"
        }
      ],
      "name": "getApproved",
      "outputs": [
        {
          "internalType": "address",
          "name": "",
          "type": "address"
        }
      ],
      "stateMutability": "view",
      "type": "function"
    },
    {
      "inputs": [
        {
          "internalType": "bytes32",
          "name": "role",
          "type": "bytes32"
        }
      ],
      "name": "getRoleAdmin",
      "outputs": [
        {
          "internalType": "bytes32",
          "name": "",
          "type": "bytes32"
        }
      ],
      "stateMutability": "view",
      "type": "function"
    },
    {
      "inputs": [
        {
          "internalType": "uint256",
          "name": "tokenId",
          "type": "uint256"
        }
      ],
      "name": "getTokenPurpose",
      "outputs": [
        {
          "internalType": "string",
          "name": "",
          "type": "string"
        }
      ],
      "stateMutability": "view",
      "type": "function"
    },
    {
      "inputs": [
        {
          "internalType": "bytes32",
          "name": "role",
          "type": "bytes32"
        },
        {
          "internalType": "address",
          "name": "account",
          "type": "address"
        }
      ],
      "name": "grantRole",
      "outputs": [],
      "stateMutability": "nonpayable",
      "type": "function"
    },
    {
      "inputs": [
        {
          "internalType": "bytes32",
          "name": "role",
          "type": "bytes32"
        },
        {
          "internalType": "address",
          "name": "account",
          "type": "address"
        }
      ],
      "name": "hasRole",
      "outputs": [
        {
          "internalType": "bool",
          "name": "",
          "type": "bool"
        }
      ],
      "stateMutability": "view",
      "type": "function"
    },
    {
      "inputs": [
        {
          "internalType": "address",
          "name": "owner",
          "type": "address"
        },
        {
          "internalType": "address",
          "name": "operator",
          "type": "address"
        }
      ],
      "name": "isApprovedForAll",
      "outputs": [
        {
          "internalType": "bool",
          "name": "",
          "type": "bool"
        }
      ],
      "stateMutability": "view",
      "type": "function"
    },
    {
      "inputs": [
        {
          "internalType": "address",
          "name": "researcher",
          "type": "address"
        }
      ],
      "name": "isApprovedResearcher",
      "outputs": [
        {
          "internalType": "bool",
          "name": "",
          "type": "bool"
        }
      ],
      "stateMutability": "view",
      "type": "function"
    },
    {
      "inputs": [
        {
          "internalType": "address",
          "name": "to",
          "type": "address"
        },
        {
          "internalType": "string",
          "name": "researchPurpose",
          "type": "string"
        }
      ],
      "name": "mintResearchToken",
      "outputs": [
        {
          "internalType": "uint256",
          "name": "",
          "type": "uint256"
        }
      ],
      "stateMutability": "nonpayable",
      "type": "function"
    },
    {
      "inputs": [],
      "name": "name",
      "outputs": [
        {
          "internalType": "string",
          "name": "",
          "type": "string"
        }
      ],
      "stateMutability": "view",
      "type": "function"
    },
    {
      "inputs": [
        {
          "internalType": "uint256",
          "name": "tokenId",
          "type": "uint256"
        }
      ],
      "name": "ownerOf",
      "outputs": [
        {
          "internalType": "address",
          "name": "",
          "type": "address"
        }
      ],
      "stateMutability": "view",
      "type": "function"
    },
    {
      "inputs": [
        {
          "internalType": "bytes32",
          "name": "role",
          "type": "bytes32"
        },
        {
          "internalType": "address",
          "name": "account",
          "type": "address"
        }
      ],
      "name": "renounceRole",
      "outputs": [],
      "stateMutability": "nonpayable",
      "type": "function"
    },
    {
      "inputs": [
        {
          "internalType": "bytes32",
          "name": "role",
          "type": "bytes32"
        },
        {
          "internalType": "address",
          "name": "account",
          "type": "address"
        }
      ],
      "name": "revokeRole",
      "outputs": [],
      "stateMutability": "nonpayable",
      "type": "function"
    },
    {
      "inputs": [
        {
          "internalType": "address",
          "name": "from",
          "type": "address"
        },
        {
          "internalType": "address",
          "name": "to",
          "type": "address"
        },
        {
          "internalType": "uint256",
          "name": "tokenId",
          "type": "uint256"
        }
      ],
      "name": "safeTransferFrom",
      "outputs": [],
      "stateMutability": "nonpayable",
      "type": "function"
    },
    {
      "inputs": [
        {
          "internalType": "address",
          "name": "from",
          "type": "address"
        },
        {
          "internalType": "address",
          "name": "to",
          "type": "address"
        },
        {
          "internalType": "uint256",
          "name": "tokenId",
          "type": "uint256"
        },
        {
          "internalType": "bytes",
          "name": "data",
          "type": "bytes"
        }
      ],
      "name": "safeTransferFrom",
      "outputs": [],
      "stateMutability": "nonpayable",
      "type": "function"
    },
    {
      "inputs": [
        {
          "internalType": "address",
          "name": "operator",
          "type": "address"
        },
        {
          "internalType": "bool",
          "name": "approved",
          "type": "bool"
        }
      ],
      "name": "setApprovalForAll",
      "outputs": [],
      "stateMutability": "nonpayable",
      "type": "function"
    },
    {
      "inputs": [
        {
          "internalType": "bytes4",
          "name": "interfaceId",
          "type": "bytes4"
        }
      ],
      "name": "supportsInterface",
      "outputs": [
        {
          "internalType": "bool",
          "name": "",
          "type": "bool"
        }
      ],
      "stateMutability": "view",
      "type": "function"
    },
    {
      "inputs": [],
      "name": "symbol",
      "outputs": [
        {
          "internalType": "string",
          "name": "",
          "type": "string"
        }
      ],
      "stateMutability": "view",
      "type": "function"
    },
    {
      "inputs": [
        {
          "internalType": "uint256",
          "name": "tokenId",
          "type": "uint256"
        }
      ],
      "name": "tokenURI",
      "outputs": [
        {
          "internalType": "string",
          "name": "",
          "type": "string"
        }
      ],
      "stateMutability": "view",
      "type": "function"
    },
    {
      "inputs": [
        {
          "internalType": "address",
          "name": "from",
          "type": "address"
        },
        {
          "internalType": "address",
          "name": "to",
          "type": "address"
        },
        {
          "internalType": "uint256",
          "name": "tokenId",
          "type": "uint256"
        }
      ],
      "name": "transferFrom",
      "outputs": [],
      "stateMutability": "nonpayable",
      "type": "function"
    }
  ],
  "bytecode": "0x60806040523480156200001157600080fd5b506040518060400160405280601381526020017f5265736561726368416363657373546f6b656e000000000000000000000000008152506040518060400160405280600381526020017f524154000000000000000000000000000000000000000000000000000000000081525081600090816200008f9190620004d0565b508060019081620000a19190620004d0565b505050620000b96000801b33620000f160201b60201c565b620000eb7fa49807205ce4d355092ef5a8a18f56e8913cf4a201fbe287825b095693c2177533620000f160201b60201c565b620005b7565b620001038282620001e360201b60201c565b620001df5760016006600084815260200190815260200160002060000160008373ffffffffffffffffffffffffffffffffffffffff1673ffffffffffffffffffffffffffffffffffffffff16815260200190815260200160002060006101000a81548160ff021916908315150217905550620001846200024e60201b60201c565b73ffffffffffffffffffffffffffffffffffffffff168173ffffffffffffffffffffffffffffffffffffffff16837f2f8788117e7eff1d82e926ec794901d17c78024a50270940304540a733656f0d60405160405180910390a45b5050565b60006006600084815260200190815260200160002060000160008373ffffffffffffffffffffffffffffffffffffffff1673ffffffffffffffffffffffffffffffffffffffff16815260200190815260200160002060009054906101000a900460ff16905092915050565b600033905090565b600081519050919050565b7f4e487b7100000000000000000000000000000000000000000000000000000000600052604160045260246000fd5b7f4e487b7100000000000000000000000000000000000000000000000000000000600052602260045260246000fd5b60006002820490506001821680620002d857607f821691505b602082108103620002ee57620002ed62000290565b5b50919050565b60008190508160005260206000209050919050565b60006020601f8301049050919050565b600082821b905092915050565b600060088302620003587fffffffffffffffffffffffffffffffffffffffffffffffffffffffffffffffff8262000319565b62000364868362000319565b95508019841693508086168417925050509392505050565b6000819050919050565b6000819050919050565b6000620003b1620003ab620003a5846200037c565b62000386565b6200037c565b9050919050565b6000819050919050565b620003cd8362000390565b620003e5620003dc82620003b8565b84845462000326565b825550505050565b600090565b620003fc620003ed565b62000409818484620003c2565b505050565b5b81811015620004315762000425600082620003f2565b6001810190506200040f565b5050565b601f82111562000480576200044a81620002f4565b620004558462000309565b8101602085101562000465578190505b6200047d620004748562000309565b8301826200040e565b50505b505050565b600082821c905092915050565b6000620004a56000198460080262000485565b1980831691505092915050565b6000620004c0838362000492565b9150826002028217905092915050565b620004db8262000256565b67ffffffffffffffff811115620004f757620004f662000261565b5b620005038254620002bf565b6200051082828562000435565b600060209050601f83116001811462000548576000841562000533578287015190505b6200053f8582620004b2565b865550620005af565b601f1984166200055886620002f4565b60005b8281101562000582578489015182556001820191506020850194506020810190506200055b565b86831015620005a257848901516200059e601f89168262000492565b8355505b6001600288020188555050505b505050505050565b6135ff80620005c76000396000f3fe608060405234801561001057600080fd5b506004361061014d5760003560e01c806370a08231116100c3578063a22cb4651161007c578063a22cb465146103d6578063aee32d78146103f2578063b88d4fde14610422578063c87b56dd1461043e578063d547741f1461046e578063e985e9c51461048a5761014d565b806370a08231146102ec57806375b238fc1461031c57806391d148541461033a57806395d89b411461036a5780639b5f468414610388578063a217fddf146103b85761014d565b8063248a9ca311610115578063248a9ca3146102085780632f2ff15d1461023857806336568abe1461025457806342842e0e146102705780634c30528d1461028c5780636352211e146102bc5761014d565b806301ffc9a71461015257806306fdde0314610182578063081812fc146101a0578063095ea7b3146101d057806323b872dd146101ec575b600080fd5b61016c6004803603810190610167919061217a565b6104ba565b60405161017991906121c2565b60405180910390f35b61018a6104cc565b604051610197919061226d565b60405180910390f35b6101ba60048036038101906101b591906122c5565b61055e565b6040516101c79190612333565b60405180910390f35b6101ea60048036038101906101e5919061237a565b6105a4565b005b610206600480360381019061020191906123ba565b6106bb565b005b610222600480360381019061021d9190612443565b61071b565b60405161022f919061247f565b60405180910390f35b610252600480360381019061024d919061249a565b61073b565b005b61026e6004803603810190610269919061249a565b61075c565b005b61028a600480360381019061028591906123ba565b6107df565b005b6102a660048036038101906102a1919061260f565b6107ff565b6040516102b3919061267a565b60405180910390f35b6102d660048036038101906102d191906122c5565b610879565b6040516102e39190612333565b60405180910390f35b61030660048036038101906103019190612695565b6108ff565b604051610313919061267a565b60405180910390f35b6103246109b6565b604051610331919061247f565b60405180910390f35b610354600480360381019061034f919061249a565b6109da565b60405161036191906121c2565b60405180910390f35b610372610a45565b60405161037f919061226d565b60405180910390f35b6103a2600480360381019061039d91906122c5565b610ad7565b6040516103af919061226d565b60405180910390f35b6103c0610bc4565b6040516103cd919061247f565b60405180910390f35b6103f060048036038101906103eb91906126ee565b610bcb565b005b61040c60048036038101906104079190612695565b610be1565b60405161041991906121c2565b60405180910390f35b61043c600480360381019061043791906127cf565b610bf5565b005b610458600480360381019061045391906122c5565b610c57565b604051610465919061226d565b60405180910390f35b6104886004803603810190610483919061249a565b610cbf565b005b6104a4600480360381019061049f9190612852565b610ce0565b6040516104b191906121c2565b60405180910390f35b60006104c582610d74565b9050919050565b6060600080546104db906128c1565b80601f0160208091040260200160405190810160405280929190818152602001828054610507906128c1565b80156105545780601f1061052957610100808354040283529160200191610554565b820191906000526020600020905b81548152906001019060200180831161053757829003601f168201915b5050505050905090565b600061056982610dee565b6004600083815260200190815260200160002060009054906101000a900473ffffffffffffffffffffffffffffffffffffffff169050919050565b60006105af82610879565b90508073ffffffffffffffffffffffffffffffffffffffff168373ffffffffffffffffffffffffffffffffffffffff160361061f576040517f08c379a000000000000000000000000000000000000000000000000000000000815260040161061690612964565b60405180910390fd5b8073ffffffffffffffffffffffffffffffffffffffff1661063e610e39565b73ffffffffffffffffffffffffffffffffffffffff16148061066d575061066c81610667610e39565b610ce0565b5b6106ac576040517f08c379a00000000000000000000000000000000000000000000000000000000081526004016106a3906129f6565b60405180910390fd5b6106b68383610e41565b505050565b6106cc6106c6610e39565b82610efa565b61070b576040517f08c379a000000000000000000000000000000000000000000000000000000000815260040161070290612a88565b60405180910390fd5b610716838383610f8f565b505050565b600060066000838152602001908152602001600020600101549050919050565b6107448261071b565b61074d81611288565b610757838361129c565b505050565b610764610e39565b73ffffffffffffffffffffffffffffffffffffffff168173ffffffffffffffffffffffffffffffffffffffff16146107d1576040517f08c379a00000000000000000000000000000000000000000000000000000000081526004016107c890612b1a565b60405180910390fd5b6107db828261137d565b5050565b6107fa83838360405180602001604052806000815250610bf5565b505050565b60007fa49807205ce4d355092ef5a8a18f56e8913cf4a201fbe287825b095693c2177561082b81611288565b610835600761145f565b60006108416007611475565b905061084d8582611483565b8360086000838152602001908152602001600020908161086d9190612ce6565b50809250505092915050565b600080610885836116a0565b9050600073ffffffffffffffffffffffffffffffffffffffff168173ffffffffffffffffffffffffffffffffffffffff16036108f6576040517f08c379a00000000000000000000000000000000000000000000000000000000081526004016108ed90612e04565b60405180910390fd5b80915050919050565b60008073ffffffffffffffffffffffffffffffffffffffff168273ffffffffffffffffffffffffffffffffffffffff160361096f576040517f08c379a000000000000000000000000000000000000000000000000000000000815260040161096690612e96565b60405180910390fd5b600360008373ffffffffffffffffffffffffffffffffffffffff1673ffffffffffffffffffffffffffffffffffffffff168152602001908152602001600020549050919050565b7fa49807205ce4d355092ef5a8a18f56e8913cf4a201fbe287825b095693c2177581565b60006006600084815260200190815260200160002060000160008373ffffffffffffffffffffffffffffffffffffffff1673ffffffffffffffffffffffffffffffffffffffff16815260200190815260200160002060009054906101000a900460ff16905092915050565b606060018054610a54906128c1565b80601f0160208091040260200160405190810160405280929190818152602001828054610a80906128c1565b8015610acd5780601f10610aa257610100808354040283529160200191610acd565b820191906000526020600020905b815481529060010190602001808311610ab057829003601f168201915b5050505050905090565b6060610ae2826116dd565b610b21576040517f08c379a0000000000000000000000000000000000000000000000000000000008152600401610b1890612f02565b60405180910390fd5b600860008381526020019081526020016000208054610b3f906128c1565b80601f0160208091040260200160405190810160405280929190818152602001828054610b6b906128c1565b8015610bb85780601f10610b8d57610100808354040283529160200191610bb8565b820191906000526020600020905b815481529060010190602001808311610b9b57829003601f168201915b50505050509050919050565b6000801b81565b610bdd610bd6610e39565b838361171e565b5050565b600080610bed836108ff565b119050919050565b610c06610c00610e39565b83610efa565b610c45576040517f08c379a0000000000000000000000000000000000000000000000000000000008152600401610c3c90612a88565b60405180910390fd5b610c518484848461188a565b50505050565b6060610c6282610dee565b6000610c6c6118e6565b90506000815111610c8c5760405180602001604052806000815250610cb7565b80610c96846118fd565b604051602001610ca7929190612f5e565b6040516020818303038152906040525b915050919050565b610cc88261071b565b610cd181611288565b610cdb838361137d565b505050565b6000600560008473ffffffffffffffffffffffffffffffffffffffff1673ffffffffffffffffffffffffffffffffffffffff16815260200190815260200160002060008373ffffffffffffffffffffffffffffffffffffffff1673ffffffffffffffffffffffffffffffffffffffff16815260200190815260200160002060009054906101000a900460ff16905092915050565b60007f7965db0b000000000000000000000000000000000000000000000000000000007bffffffffffffffffffffffffffffffffffffffffffffffffffffffff1916827bffffffffffffffffffffffffffffffffffffffffffffffffffffffff19161480610de75750610de6826119cb565b5b9050919050565b610df7816116dd565b610e36576040517f08c379a0000000000000000000000000000000000000000000000000000000008152600401610e2d90612e04565b60405180910390fd5b50565b600033905090565b816004600083815260200190815260200160002060006101000a81548173ffffffffffffffffffffffffffffffffffffffff021916908373ffffffffffffffffffffffffffffffffffffffff160217905550808273ffffffffffffffffffffffffffffffffffffffff16610eb483610879565b73ffffffffffffffffffffffffffffffffffffffff167f8c5be1e5ebec7d5bd14f71427d1e84f3dd0314c0f7b2291e5b200ac8c7c3b92560405160405180910390a45050565b600080610f0683610879565b90508073ffffffffffffffffffffffffffffffffffffffff168473ffffffffffffffffffffffffffffffffffffffff161480610f485750610f478185610ce0565b5b80610f8657508373ffffffffffffffffffffffffffffffffffffffff16610f6e8461055e565b73ffffffffffffffffffffffffffffffffffffffff16145b91505092915050565b8273ffffffffffffffffffffffffffffffffffffffff16610faf82610879565b73ffffffffffffffffffffffffffffffffffffffff1614611005576040517f08c379a0000000000000000000000000000000000000000000000000000000008152600401610ffc90612ff4565b60405180910390fd5b600073ffffffffffffffffffffffffffffffffffffffff168273ffffffffffffffffffffffffffffffffffffffff1603611074576040517f08c379a000000000000000000000000000000000000000000000000000000000815260040161106b90613086565b60405180910390fd5b6110818383836001611aad565b8273ffffffffffffffffffffffffffffffffffffffff166110a182610879565b73ffffffffffffffffffffffffffffffffffffffff16146110f7576040517f08c379a00000000000000000000000000000000000000000000000000000000081526004016110ee90612ff4565b60405180910390fd5b6004600082815260200190815260200160002060006101000a81549073ffffffffffffffffffffffffffffffffffffffff02191690556001600360008573ffffffffffffffffffffffffffffffffffffffff1673ffffffffffffffffffffffffffffffffffffffff168152602001908152602001600020600082825403925050819055506001600360008473ffffffffffffffffffffffffffffffffffffffff1673ffffffffffffffffffffffffffffffffffffffff16815260200190815260200160002060008282540192505081905550816002600083815260200190815260200160002060006101000a81548173ffffffffffffffffffffffffffffffffffffffff021916908373ffffffffffffffffffffffffffffffffffffffff160217905550808273ffffffffffffffffffffffffffffffffffffffff168473ffffffffffffffffffffffffffffffffffffffff167fddf252ad1be2c89b69c2b068fc378daa952ba7f163c4a11628f55a4df523b3ef60405160405180910390a46112838383836001611ab3565b505050565b61129981611294610e39565b611ab9565b50565b6112a682826109da565b6113795760016006600084815260200190815260200160002060000160008373ffffffffffffffffffffffffffffffffffffffff1673ffffffffffffffffffffffffffffffffffffffff16815260200190815260200160002060006101000a81548160ff02191690831515021790555061131e610e39565b73ffffffffffffffffffffffffffffffffffffffff168173ffffffffffffffffffffffffffffffffffffffff16837f2f8788117e7eff1d82e926ec794901d17c78024a50270940304540a733656f0d60405160405180910390a45b5050565b61138782826109da565b1561145b5760006006600084815260200190815260200160002060000160008373ffffffffffffffffffffffffffffffffffffffff1673ffffffffffffffffffffffffffffffffffffffff16815260200190815260200160002060006101000a81548160ff021916908315150217905550611400610e39565b73ffffffffffffffffffffffffffffffffffffffff168173ffffffffffffffffffffffffffffffffffffffff16837ff6391f5c32d9c69d2a47ea670b442974b53935d1edc7fd64eb21e047a839171b60405160405180910390a45b5050565b6001816000016000828254019250508190555050565b600081600001549050919050565b600073ffffffffffffffffffffffffffffffffffffffff168273ffffffffffffffffffffffffffffffffffffffff16036114f2576040517f08c379a00000000000000000000000000000000000000000000000000000000081526004016114e9906130f2565b60405180910390fd5b6114fb816116dd565b1561153b576040517f08c379a00000000000000000000000000000000000000000000000000000000081526004016115329061315e565b60405180910390fd5b611549600083836001611aad565b611552816116dd565b15611592576040517f08c379a00000000000000000000000000000000000000000000000000000000081526004016115899061315e565b60405180910390fd5b6001600360008473ffffffffffffffffffffffffffffffffffffffff1673ffffffffffffffffffffffffffffffffffffffff16815260200190815260200160002060008282540192505081905550816002600083815260200190815260200160002060006101000a81548173ffffffffffffffffffffffffffffffffffffffff021916908373ffffffffffffffffffffffffffffffffffffffff160217905550808273ffffffffffffffffffffffffffffffffffffffff16600073ffffffffffffffffffffffffffffffffffffffff167fddf252ad1be2c89b69c2b068fc378daa952ba7f163c4a11628f55a4df523b3ef60405160405180910390a461169c600083836001611ab3565b5050565b60006002600083815260200190815260200160002060009054906101000a900473ffffffffffffffffffffffffffffffffffffffff169050919050565b60008073ffffffffffffffffffffffffffffffffffffffff166116ff836116a0565b73ffffffffffffffffffffffffffffffffffffffff1614159050919050565b8173ffffffffffffffffffffffffffffffffffffffff168373ffffffffffffffffffffffffffffffffffffffff160361178c576040517f08c379a0000000000000000000000000000000000000000000000000000000008152600401611783906131ca565b60405180910390fd5b80600560008573ffffffffffffffffffffffffffffffffffffffff1673ffffffffffffffffffffffffffffffffffffffff16815260200190815260200160002060008473ffffffffffffffffffffffffffffffffffffffff1673ffffffffffffffffffffffffffffffffffffffff16815260200190815260200160002060006101000a81548160ff0219169083151502179055508173ffffffffffffffffffffffffffffffffffffffff168373ffffffffffffffffffffffffffffffffffffffff167f17307eab39ab6107e8899845ad3d59bd9653f200f220920489ca2b5937696c318360405161187d91906121c2565b60405180910390a3505050565b611895848484610f8f565b6118a184848484611b3e565b6118e0576040517f08c379a00000000000000000000000000000000000000000000000000000000081526004016118d79061325c565b60405180910390fd5b50505050565b606060405180602001604052806000815250905090565b60606000600161190c84611cc5565b01905060008167ffffffffffffffff81111561192b5761192a6124e4565b5b6040519080825280601f01601f19166020018201604052801561195d5781602001600182028036833780820191505090505b509050600082602001820190505b6001156119c0578080600190039150507f3031323334353637383961626364656600000000000000000000000000000000600a86061a8153600a85816119b4576119b361327c565b5b0494506000850361196b575b819350505050919050565b60007f80ac58cd000000000000000000000000000000000000000000000000000000007bffffffffffffffffffffffffffffffffffffffffffffffffffffffff1916827bffffffffffffffffffffffffffffffffffffffffffffffffffffffff19161480611a9657507f5b5e139f000000000000000000000000000000000000000000000000000000007bffffffffffffffffffffffffffffffffffffffffffffffffffffffff1916827bffffffffffffffffffffffffffffffffffffffffffffffffffffffff1916145b80611aa65750611aa582611e18565b5b9050919050565b50505050565b50505050565b611ac382826109da565b611b3a57611ad081611e82565b611ade8360001c6020611eaf565b604051602001611aef929190613343565b6040516020818303038152906040526040517f08c379a0000000000000000000000000000000000000000000000000000000008152600401611b31919061226d565b60405180910390fd5b5050565b6000611b5f8473ffffffffffffffffffffffffffffffffffffffff166120eb565b15611cb8578373ffffffffffffffffffffffffffffffffffffffff1663150b7a02611b88610e39565b8786866040518563ffffffff1660e01b8152600401611baa94939291906133d2565b6020604051808303816000875af1925050508015611be657506040513d601f19601f82011682018060405250810190611be39190613433565b60015b611c68573d8060008114611c16576040519150601f19603f3d011682016040523d82523d6000602084013e611c1b565b606091505b506000815103611c60576040517f08c379a0000000000000000000000000000000000000000000000000000000008152600401611c579061325c565b60405180910390fd5b805181602001fd5b63150b7a0260e01b7bffffffffffffffffffffffffffffffffffffffffffffffffffffffff1916817bffffffffffffffffffffffffffffffffffffffffffffffffffffffff191614915050611cbd565b600190505b949350505050565b600080600090507a184f03e93ff9f4daa797ed6e38ed64bf6a1f0100000000000000008310611d23577a184f03e93ff9f4daa797ed6e38ed64bf6a1f0100000000000000008381611d1957611d1861327c565b5b0492506040810190505b6d04ee2d6d415b85acef81000000008310611d60576d04ee2d6d415b85acef81000000008381611d5657611d5561327c565b5b0492506020810190505b662386f26fc100008310611d8f57662386f26fc100008381611d8557611d8461327c565b5b0492506010810190505b6305f5e1008310611db8576305f5e1008381611dae57611dad61327c565b5b0492506008810190505b6127108310611ddd576127108381611dd357611dd261327c565b5b0492506004810190505b60648310611e005760648381611df657611df561327c565b5b0492506002810190505b600a8310611e0f576001810190505b80915050919050565b60007f01ffc9a7000000000000000000000000000000000000000000000000000000007bffffffffffffffffffffffffffffffffffffffffffffffffffffffff1916827bffffffffffffffffffffffffffffffffffffffffffffffffffffffff1916149050919050565b6060611ea88273ffffffffffffffffffffffffffffffffffffffff16601460ff16611eaf565b9050919050565b606060006002836002611ec2919061348f565b611ecc91906134d1565b67ffffffffffffffff811115611ee557611ee46124e4565b5b6040519080825280601f01601f191660200182016040528015611f175781602001600182028036833780820191505090505b5090507f300000000000000000000000000000000000000000000000000000000000000081600081518110611f4f57611f4e613505565b5b60200101907effffffffffffffffffffffffffffffffffffffffffffffffffffffffffffff1916908160001a9053507f780000000000000000000000000000000000000000000000000000000000000081600181518110611fb357611fb2613505565b5b60200101907effffffffffffffffffffffffffffffffffffffffffffffffffffffffffffff1916908160001a90535060006001846002611ff3919061348f565b611ffd91906134d1565b90505b600181111561209d577f3031323334353637383961626364656600000000000000000000000000000000600f86166010811061203f5761203e613505565b5b1a60f81b82828151811061205657612055613505565b5b60200101907effffffffffffffffffffffffffffffffffffffffffffffffffffffffffffff1916908160001a905350600485901c94508061209690613534565b9050612000565b50600084146120e1576040517f08c379a00000000000000000000000000000000000000000000000000000000081526004016120d8906135a9565b60405180910390fd5b8091505092915050565b6000808273ffffffffffffffffffffffffffffffffffffffff163b119050919050565b6000604051905090565b600080fd5b600080fd5b60007fffffffff0000000000000000000000000000000000000000000000000000000082169050919050565b61215781612122565b811461216257600080fd5b50565b6000813590506121748161214e565b92915050565b6000602082840312156121905761218f612118565b5b600061219e84828501612165565b91505092915050565b60008115159050919050565b6121bc816121a7565b82525050565b60006020820190506121d760008301846121b3565b92915050565b600081519050919050565b600082825260208201905092915050565b60005b838110156122175780820151818401526020810190506121fc565b60008484015250505050565b6000601f19601f8301169050919050565b600061223f826121dd565b61224981856121e8565b93506122598185602086016121f9565b61226281612223565b840191505092915050565b600060208201905081810360008301526122878184612234565b905092915050565b6000819050919050565b6122a28161228f565b81146122ad57600080fd5b50565b6000813590506122bf81612299565b92915050565b6000602082840312156122db576122da612118565b5b60006122e9848285016122b0565b91505092915050565b600073ffffffffffffffffffffffffffffffffffffffff82169050919050565b600061231d826122f2565b9050919050565b61232d81612312565b82525050565b60006020820190506123486000830184612324565b92915050565b61235781612312565b811461236257600080fd5b50565b6000813590506123748161234e565b92915050565b6000806040838503121561239157612390612118565b5b600061239f85828601612365565b92505060206123b0858286016122b0565b9150509250929050565b6000806000606084860312156123d3576123d2612118565b5b60006123e186828701612365565b93505060206123f286828701612365565b9250506040612403868287016122b0565b9150509250925092565b6000819050919050565b6124208161240d565b811461242b57600080fd5b50565b60008135905061243d81612417565b92915050565b60006020828403121561245957612458612118565b5b60006124678482850161242e565b91505092915050565b6124798161240d565b82525050565b60006020820190506124946000830184612470565b92915050565b600080604083850312156124b1576124b0612118565b5b60006124bf8582860161242e565b92505060206124d085828601612365565b9150509250929050565b600080fd5b600080fd5b7f4e487b7100000000000000000000000000000000000000000000000000000000600052604160045260246000fd5b61251c82612223565b810181811067ffffffffffffffff8211171561253b5761253a6124e4565b5b80604052505050565b600061254e61210e565b905061255a8282612513565b919050565b600067ffffffffffffffff82111561257a576125796124e4565b5b61258382612223565b9050602081019050919050565b82818337600083830152505050565b60006125b26125ad8461255f565b612544565b9050828152602081018484840111156125ce576125cd6124df565b5b6125d9848285612590565b509392505050565b600082601f8301126125f6576125f56124da565b5b813561260684826020860161259f565b91505092915050565b6000806040838503121561262657612625612118565b5b600061263485828601612365565b925050602083013567ffffffffffffffff8111156126555761265461211d565b5b612661858286016125e1565b9150509250929050565b6126748161228f565b82525050565b600060208201905061268f600083018461266b565b92915050565b6000602082840312156126ab576126aa612118565b5b60006126b984828501612365565b91505092915050565b6126cb816121a7565b81146126d657600080fd5b50565b6000813590506126e8816126c2565b92915050565b6000806040838503121561270557612704612118565b5b600061271385828601612365565b9250506020612724858286016126d9565b9150509250929050565b600067ffffffffffffffff821115612749576127486124e4565b5b61275282612223565b9050602081019050919050565b600061277261276d8461272e565b612544565b90508281526020810184848401111561278e5761278d6124df565b5b612799848285612590565b509392505050565b600082601f8301126127b6576127b56124da565b5b81356127c684826020860161275f565b91505092915050565b600080600080608085870312156127e9576127e8612118565b5b60006127f787828801612365565b945050602061280887828801612365565b9350506040612819878288016122b0565b925050606085013567ffffffffffffffff81111561283a5761283961211d565b5b612846878288016127a1565b91505092959194509250565b6000806040838503121561286957612868612118565b5b600061287785828601612365565b925050602061288885828601612365565b9150509250929050565b7f4e487b7100000000000000000000000000000000000000000000000000000000600052602260045260246000fd5b600060028204905060018216806128d957607f821691505b6020821081036128ec576128eb612892565b5b50919050565b7f4552433732313a20617070726f76616c20746f2063757272656e74206f776e6560008201527f7200000000000000000000000000000000000000000000000000000000000000602082015250565b600061294e6021836121e8565b9150612959826128f2565b604082019050919050565b6000602082019050818103600083015261297d81612941565b9050919050565b7f4552433732313a20617070726f76652063616c6c6572206973206e6f7420746f60008201527f6b656e206f776e6572206f7220617070726f76656420666f7220616c6c000000602082015250565b60006129e0603d836121e8565b91506129eb82612984565b604082019050919050565b60006020820190508181036000830152612a0f816129d3565b9050919050565b7f4552433732313a2063616c6c6572206973206e6f7420746f6b656e206f776e6560008201527f72206f7220617070726f76656400000000000000000000000000000000000000602082015250565b6000612a72602d836121e8565b9150612a7d82612a16565b604082019050919050565b60006020820190508181036000830152612aa181612a65565b9050919050565b7f416363657373436f6e74726f6c3a2063616e206f6e6c792072656e6f756e636560008201527f20726f6c657320666f722073656c660000000000000000000000000000000000602082015250565b6000612b04602f836121e8565b9150612b0f82612aa8565b604082019050919050565b60006020820190508181036000830152612b3381612af7565b9050919050565b60008190508160005260206000209050919050565b60006020601f8301049050919050565b600082821b905092915050565b600060088302612b9c7fffffffffffffffffffffffffffffffffffffffffffffffffffffffffffffffff82612b5f565b612ba68683612b5f565b95508019841693508086168417925050509392505050565b6000819050919050565b6000612be3612bde612bd98461228f565b612bbe565b61228f565b9050919050565b6000819050919050565b612bfd83612bc8565b612c11612c0982612bea565b848454612b6c565b825550505050565b600090565b612c26612c19565b612c31818484612bf4565b505050565b5b81811015612c5557612c4a600082612c1e565b600181019050612c37565b5050565b601f821115612c9a57612c6b81612b3a565b612c7484612b4f565b81016020851015612c83578190505b612c97612c8f85612b4f565b830182612c36565b50505b505050565b600082821c905092915050565b6000612cbd60001984600802612c9f565b1980831691505092915050565b6000612cd68383612cac565b9150826002028217905092915050565b612cef826121dd565b67ffffffffffffffff811115612d0857612d076124e4565b5b612d1282546128c1565b612d1d828285612c59565b600060209050601f831160018114612d505760008415612d3e578287015190505b612d488582612cca565b865550612db0565b601f198416612d5e86612b3a565b60005b82811015612d8657848901518255600182019150602085019450602081019050612d61565b86831015612da35784890151612d9f601f891682612cac565b8355505b6001600288020188555050505b505050505050565b7f4552433732313a20696e76616c696420746f6b656e2049440000000000000000600082015250565b6000612dee6018836121e8565b9150612df982612db8565b602082019050919050565b60006020820190508181036000830152612e1d81612de1565b9050919050565b7f4552433732313a2061646472657373207a65726f206973206e6f74206120766160008201527f6c6964206f776e65720000000000000000000000000000000000000000000000602082015250565b6000612e806029836121e8565b9150612e8b82612e24565b604082019050919050565b60006020820190508181036000830152612eaf81612e73565b9050919050565b7f546f6b656e20646f6573206e6f74206578697374000000000000000000000000600082015250565b6000612eec6014836121e8565b9150612ef782612eb6565b602082019050919050565b60006020820190508181036000830152612f1b81612edf565b9050919050565b600081905092915050565b6000612f38826121dd565b612f428185612f22565b9350612f528185602086016121f9565b80840191505092915050565b6000612f6a8285612f2d565b9150612f768284612f2d565b91508190509392505050565b7f4552433732313a207472616e736665722066726f6d20696e636f72726563742060008201527f6f776e6572000000000000000000000000000000000000000000000000000000602082015250565b6000612fde6025836121e8565b9150612fe982612f82565b604082019050919050565b6000602082019050818103600083015261300d81612fd1565b9050919050565b7f4552433732313a207472616e7366657220746f20746865207a65726f2061646460008201527f7265737300000000000000000000000000000000000000000000000000000000602082015250565b60006130706024836121e8565b915061307b82613014565b604082019050919050565b6000602082019050818103600083015261309f81613063565b9050919050565b7f4552433732313a206d696e7420746f20746865207a65726f2061646472657373600082015250565b60006130dc6020836121e8565b91506130e7826130a6565b602082019050919050565b6000602082019050818103600083015261310b816130cf565b9050919050565b7f4552433732313a20746f6b656e20616c7265616479206d696e74656400000000600082015250565b6000613148601c836121e8565b915061315382613112565b602082019050919050565b600060208201905081810360008301526131778161313b565b9050919050565b7f4552433732313a20617070726f766520746f2063616c6c657200000000000000600082015250565b60006131b46019836121e8565b91506131bf8261317e565b602082019050919050565b600060208201905081810360008301526131e3816131a7565b9050919050565b7f4552433732313a207472616e7366657220746f206e6f6e20455243373231526560008201527f63656976657220696d706c656d656e7465720000000000000000000000000000602082015250565b60006132466032836121e8565b9150613251826131ea565b604082019050919050565b6000602082019050818103600083015261327581613239565b9050919050565b7f4e487b7100000000000000000000000000000000000000000000000000000000600052601260045260246000fd5b7f416363657373436f6e74726f6c3a206163636f756e7420000000000000000000600082015250565b60006132e1601783612f22565b91506132ec826132ab565b601782019050919050565b7f206973206d697373696e6720726f6c6520000000000000000000000000000000600082015250565b600061332d601183612f22565b9150613338826132f7565b601182019050919050565b600061334e826132d4565b915061335a8285612f2d565b915061336582613320565b91506133718284612f2d565b91508190509392505050565b600081519050919050565b600082825260208201905092915050565b60006133a48261337d565b6133ae8185613388565b93506133be8185602086016121f9565b6133c781612223565b840191505092915050565b60006080820190506133e76000830187612324565b6133f46020830186612324565b613401604083018561266b565b81810360608301526134138184613399565b905095945050505050565b60008151905061342d8161214e565b92915050565b60006020828403121561344957613448612118565b5b60006134578482850161341e565b91505092915050565b7f4e487b7100000000000000000000000000000000000000000000000000000000600052601160045260246000fd5b600061349a8261228f565b91506134a58361228f565b92508282026134b38161228f565b915082820484148315176134ca576134c9613460565b5b5092915050565b60006134dc8261228f565b91506134e78361228f565b92508282019050808211156134ff576134fe613460565b5b92915050565b7f4e487b7100000000000000000000000000000000000000000000000000000000600052603260045260246000fd5b600061353f8261228f565b91506000820361355257613551613460565b5b600182039050919050565b7f537472696e67733a20686578206c656e67746820696e73756666696369656e74600082015250565b60006135936020836121e8565b915061359e8261355d565b602082019050919050565b600060208201905081810360008301526135c281613586565b905091905056fea26469706673582212204d5e22c39ddad8dbcda81274864b1ccad9f6fe48f4eb87a6d9b87b7e4f0be89b64736f6c63430008130033",
  "linkReferences": {},
  "deployedLinkReferences": {}
}