{
  "_format": "hh-sol-artifact-1",
  "contractName": "Roles",
  "sourceName": "contracts/Roles.sol",
  "abi": [
    {
      "inputs": [],
      "stateMutability": "nonpayable",
      "type": "constructor"
    },
    {
      "anonymous": false,
      "inputs": [
        {
          "indexed": true,
          "internalType": "bytes32",
          "name": "role",
          "type": "bytes32"
        },
        {
          "indexed": true,
          "internalType": "bytes32",
          "name": "previousAdminRole",
          "type": "bytes32"
        },
        {
          "indexed": true,
          "internalType": "bytes32",
          "name": "newAdminRole",
          "type": "bytes32"
        }
      ],
      "name": "RoleAdminChanged",
      "type": "event"
    },
    {
      "anonymous": false,
      "inputs": [
        {
          "indexed": true,
          "internalType": "bytes32",
          "name": "role",
          "type": "bytes32"
        },
        {
          "indexed": true,
          "internalType": "address",
          "name": "account",
          "type": "address"
        },
        {
          "indexed": true,
          "internalType": "address",
          "name": "sender",
          "type": "address"
        }
      ],
      "name": "RoleGranted",
      "type": "event"
    },
    {
      "anonymous": false,
      "inputs": [
        {
          "indexed": true,
          "internalType": "bytes32",
          "name": "role",
          "type": "bytes32"
        },
        {
          "indexed": true,
          "internalType": "address",
          "name": "account",
          "type": "address"
        },
        {
          "indexed": true,
          "internalType": "address",
          "name": "sender",
          "type": "address"
        }
      ],
      "name": "RoleRevoked",
      "type": "event"
    },
    {
      "inputs": [],
      "name": "DEFAULT_ADMIN_ROLE",
      "outputs": [
        {
          "internalType": "bytes32",
          "name": "",
          "type": "bytes32"
        }
      ],
      "stateMutability": "view",
      "type": "function"
    },
    {
      "inputs": [],
      "name": "DOCTOR_ROLE",
      "outputs": [
        {
          "internalType": "bytes32",
          "name": "",
          "type": "bytes32"
        }
      ],
      "stateMutability": "view",
      "type": "function"
    },
    {
      "inputs": [],
      "name": "EMERGENCY_ROLE",
      "outputs": [
        {
          "internalType": "bytes32",
          "name": "",
          "type": "bytes32"
        }
      ],
      "stateMutability": "view",
      "type": "function"
    },
    {
      "inputs": [],
      "name": "PATIENT_ROLE",
      "outputs": [
        {
          "internalType": "bytes32",
          "name": "",
          "type": "bytes32"
        }
      ],
      "stateMutability": "view",
      "type": "function"
    },
    {
      "inputs": [],
      "name": "RESEARCHER_ROLE",
      "outputs": [
        {
          "internalType": "bytes32",
          "name": "",
          "type": "bytes32"
        }
      ],
      "stateMutability": "view",
      "type": "function"
    },
    {
      "inputs": [
        {
          "internalType": "bytes32",
          "name": "role",
          "type": "bytes32"
        }
      ],
      "name": "getRoleAdmin",
      "outputs": [
        {
          "internalType": "bytes32",
          "name": "",
          "type": "bytes32"
        }
      ],
      "stateMutability": "view",
      "type": "function"
    },
    {
      "inputs": [
        {
          "internalType": "bytes32",
          "name": "role",
          "type": "bytes32"
        },
        {
          "internalType": "address",
          "name": "account",
          "type": "address"
        }
      ],
      "name": "grantRole",
      "outputs": [],
      "stateMutability": "nonpayable",
      "type": "function"
    },
    {
      "inputs": [
        {
          "internalType": "bytes32",
          "name": "role",
          "type": "bytes32"
        },
        {
          "internalType": "address",
          "name": "account",
          "type": "address"
        }
      ],
      "name": "hasRole",
      "outputs": [
        {
          "internalType": "bool",
          "name": "",
          "type": "bool"
        }
      ],
      "stateMutability": "view",
      "type": "function"
    },
    {
      "inputs": [
        {
          "internalType": "address",
          "name": "account",
          "type": "address"
        }
      ],
      "name": "isDoctor",
      "outputs": [
        {
          "internalType": "bool",
          "name": "",
          "type": "bool"
        }
      ],
      "stateMutability": "view",
      "type": "function"
    },
    {
      "inputs": [
        {
          "internalType": "address",
          "name": "account",
          "type": "address"
        }
      ],
      "name": "isEmergencyResponder",
      "outputs": [
        {
          "internalType": "bool",
          "name": "",
          "type": "bool"
        }
      ],
      "stateMutability": "view",
      "type": "function"
    },
    {
      "inputs": [
        {
          "internalType": "address",
          "name": "account",
          "type": "address"
        }
      ],
      "name": "isPatient",
      "outputs": [
        {
          "internalType": "bool",
          "name": "",
          "type": "bool"
        }
      ],
      "stateMutability": "view",
      "type": "function"
    },
    {
      "inputs": [
        {
          "internalType": "address",
          "name": "account",
          "type": "address"
        }
      ],
      "name": "isResearcher",
      "outputs": [
        {
          "internalType": "bool",
          "name": "",
          "type": "bool"
        }
      ],
      "stateMutability": "view",
      "type": "function"
    },
    {
      "inputs": [],
      "name": "registerAsDoctor",
      "outputs": [],
      "stateMutability": "nonpayable",
      "type": "function"
    },
    {
      "inputs": [],
      "name": "registerAsEmergencyResponder",
      "outputs": [],
      "stateMutability": "nonpayable",
      "type": "function"
    },
    {
      "inputs": [],
      "name": "registerAsPatient",
      "outputs": [],
      "stateMutability": "nonpayable",
      "type": "function"
    },
    {
      "inputs": [],
      "name": "registerAsResearcher",
      "outputs": [],
      "stateMutability": "nonpayable",
      "type": "function"
    },
    {
      "inputs": [
        {
          "internalType": "bytes32",
          "name": "role",
          "type": "bytes32"
        },
        {
          "internalType": "address",
          "name": "account",
          "type": "address"
        }
      ],
      "name": "renounceRole",
      "outputs": [],
      "stateMutability": "nonpayable",
      "type": "function"
    },
    {
      "inputs": [
        {
          "internalType": "bytes32",
          "name": "role",
          "type": "bytes32"
        },
        {
          "internalType": "address",
          "name": "account",
          "type": "address"
        }
      ],
      "name": "revokeRole",
      "outputs": [],
      "stateMutability": "nonpayable",
      "type": "function"
    },
    {
      "inputs": [
        {
          "internalType": "bytes4",
          "name": "interfaceId",
          "type": "bytes4"
        }
      ],
      "name": "supportsInterface",
      "outputs": [
        {
          "internalType": "bool",
          "name": "",
          "type": "bool"
        }
      ],
      "stateMutability": "view",
      "type": "function"
    }
  ],
  "bytecode": "0x608060405234801561001057600080fd5b506100246000801b3361002960201b60201c565b610187565b610039828261011560201b60201c565b61011157600160008084815260200190815260200160002060000160008373ffffffffffffffffffffffffffffffffffffffff1673ffffffffffffffffffffffffffffffffffffffff16815260200190815260200160002060006101000a81548160ff0219169083151502179055506100b661017f60201b60201c565b73ffffffffffffffffffffffffffffffffffffffff168173ffffffffffffffffffffffffffffffffffffffff16837f2f8788117e7eff1d82e926ec794901d17c78024a50270940304540a733656f0d60405160405180910390a45b5050565b600080600084815260200190815260200160002060000160008373ffffffffffffffffffffffffffffffffffffffff1673ffffffffffffffffffffffffffffffffffffffff16815260200190815260200160002060009054906101000a900460ff16905092915050565b600033905090565b611632806101966000396000f3fe608060405234801561001057600080fd5b50600436106101215760003560e01c80638d38ad1d116100ad578063a99ad4ee11610071578063a99ad4ee1461031c578063ac5cb97d14610326578063d547741f14610344578063f23d5b2714610360578063fec331f21461036a57610121565b80638d38ad1d146102645780638f9c79ed1461026e57806391d148541461029e578063996440c6146102ce578063a217fddf146102fe57610121565b80632f2ff15d116100f45780632f2ff15d146101d4578063363fdebd146101f057806336568abe1461022057806350f2aab31461023c5780636ba7fe7f1461025a57610121565b806301ffc9a7146101265780631f5c90571461015657806320df435914610186578063248a9ca3146101a4575b600080fd5b610140600480360381019061013b9190610e9d565b610388565b60405161014d9190610ee5565b60405180910390f35b610170600480360381019061016b9190610f5e565b610402565b60405161017d9190610ee5565b60405180910390f35b61018e610435565b60405161019b9190610fa4565b60405180910390f35b6101be60048036038101906101b99190610feb565b610459565b6040516101cb9190610fa4565b60405180910390f35b6101ee60048036038101906101e99190611018565b610478565b005b61020a60048036038101906102059190610f5e565b610499565b6040516102179190610ee5565b60405180910390f35b61023a60048036038101906102359190611018565b6104cc565b005b61024461054f565b6040516102519190610fa4565b60405180910390f35b610262610573565b005b61026c610609565b005b61028860048036038101906102839190610f5e565b61069f565b6040516102959190610ee5565b60405180910390f35b6102b860048036038101906102b39190611018565b6106d2565b6040516102c59190610ee5565b60405180910390f35b6102e860048036038101906102e39190610f5e565b61073c565b6040516102f59190610ee5565b60405180910390f35b61030661076f565b6040516103139190610fa4565b60405180910390f35b610324610776565b005b61032e61080c565b60405161033b9190610fa4565b60405180910390f35b61035e60048036038101906103599190611018565b610830565b005b610368610851565b005b6103726108e7565b60405161037f9190610fa4565b60405180910390f35b60007f7965db0b000000000000000000000000000000000000000000000000000000007bffffffffffffffffffffffffffffffffffffffffffffffffffffffff1916827bffffffffffffffffffffffffffffffffffffffffffffffffffffffff191614806103fb57506103fa8261090b565b5b9050919050565b600061042e7fbf233dd2aafeb4d50879c4aa5c81e96d92f6e6945c906a58f9f2d1c1631b4b26836106d2565b9050919050565b7fbf233dd2aafeb4d50879c4aa5c81e96d92f6e6945c906a58f9f2d1c1631b4b2681565b6000806000838152602001908152602001600020600101549050919050565b61048182610459565b61048a81610975565b6104948383610989565b505050565b60006104c57f7765bfe615aab9fb9a16bd4c5c9b353f39dae79ca7da86094b0a74ea8a89e59a836106d2565b9050919050565b6104d4610a69565b73ffffffffffffffffffffffffffffffffffffffff168173ffffffffffffffffffffffffffffffffffffffff1614610541576040517f08c379a0000000000000000000000000000000000000000000000000000000008152600401610538906110db565b60405180910390fd5b61054b8282610a71565b5050565b7f7765bfe615aab9fb9a16bd4c5c9b353f39dae79ca7da86094b0a74ea8a89e59a81565b61059d7f0af1dac7dea2fd7f7738119cec7df099dfad49aa9d2e7d17ba6b60f63ae7411f336106d2565b156105dd576040517f08c379a00000000000000000000000000000000000000000000000000000000081526004016105d490611147565b60405180910390fd5b6106077f0af1dac7dea2fd7f7738119cec7df099dfad49aa9d2e7d17ba6b60f63ae7411f33610989565b565b6106337f7765bfe615aab9fb9a16bd4c5c9b353f39dae79ca7da86094b0a74ea8a89e59a336106d2565b15610673576040517f08c379a000000000000000000000000000000000000000000000000000000000815260040161066a906111b3565b60405180910390fd5b61069d7f7765bfe615aab9fb9a16bd4c5c9b353f39dae79ca7da86094b0a74ea8a89e59a33610989565b565b60006106cb7f72606200fac42b7dc86b75901d61ecfab2a4a1a6eded478b97a428094891abed836106d2565b9050919050565b600080600084815260200190815260200160002060000160008373ffffffffffffffffffffffffffffffffffffffff1673ffffffffffffffffffffffffffffffffffffffff16815260200190815260200160002060009054906101000a900460ff16905092915050565b60006107687f0af1dac7dea2fd7f7738119cec7df099dfad49aa9d2e7d17ba6b60f63ae7411f836106d2565b9050919050565b6000801b81565b6107a07f72606200fac42b7dc86b75901d61ecfab2a4a1a6eded478b97a428094891abed336106d2565b156107e0576040517f08c379a00000000000000000000000000000000000000000000000000000000081526004016107d79061121f565b60405180910390fd5b61080a7f72606200fac42b7dc86b75901d61ecfab2a4a1a6eded478b97a428094891abed33610989565b565b7f72606200fac42b7dc86b75901d61ecfab2a4a1a6eded478b97a428094891abed81565b61083982610459565b61084281610975565b61084c8383610a71565b505050565b61087b7fbf233dd2aafeb4d50879c4aa5c81e96d92f6e6945c906a58f9f2d1c1631b4b26336106d2565b156108bb576040517f08c379a00000000000000000000000000000000000000000000000000000000081526004016108b29061128b565b60405180910390fd5b6108e57fbf233dd2aafeb4d50879c4aa5c81e96d92f6e6945c906a58f9f2d1c1631b4b2633610989565b565b7f0af1dac7dea2fd7f7738119cec7df099dfad49aa9d2e7d17ba6b60f63ae7411f81565b60007f01ffc9a7000000000000000000000000000000000000000000000000000000007bffffffffffffffffffffffffffffffffffffffffffffffffffffffff1916827bffffffffffffffffffffffffffffffffffffffffffffffffffffffff1916149050919050565b61098681610981610a69565b610b52565b50565b61099382826106d2565b610a6557600160008084815260200190815260200160002060000160008373ffffffffffffffffffffffffffffffffffffffff1673ffffffffffffffffffffffffffffffffffffffff16815260200190815260200160002060006101000a81548160ff021916908315150217905550610a0a610a69565b73ffffffffffffffffffffffffffffffffffffffff168173ffffffffffffffffffffffffffffffffffffffff16837f2f8788117e7eff1d82e926ec794901d17c78024a50270940304540a733656f0d60405160405180910390a45b5050565b600033905090565b610a7b82826106d2565b15610b4e57600080600084815260200190815260200160002060000160008373ffffffffffffffffffffffffffffffffffffffff1673ffffffffffffffffffffffffffffffffffffffff16815260200190815260200160002060006101000a81548160ff021916908315150217905550610af3610a69565b73ffffffffffffffffffffffffffffffffffffffff168173ffffffffffffffffffffffffffffffffffffffff16837ff6391f5c32d9c69d2a47ea670b442974b53935d1edc7fd64eb21e047a839171b60405160405180910390a45b5050565b610b5c82826106d2565b610bd357610b6981610bd7565b610b778360001c6020610c04565b604051602001610b889291906113b4565b6040516020818303038152906040526040517f08c379a0000000000000000000000000000000000000000000000000000000008152600401610bca9190611438565b60405180910390fd5b5050565b6060610bfd8273ffffffffffffffffffffffffffffffffffffffff16601460ff16610c04565b9050919050565b606060006002836002610c179190611493565b610c2191906114d5565b67ffffffffffffffff811115610c3a57610c39611509565b5b6040519080825280601f01601f191660200182016040528015610c6c5781602001600182028036833780820191505090505b5090507f300000000000000000000000000000000000000000000000000000000000000081600081518110610ca457610ca3611538565b5b60200101907effffffffffffffffffffffffffffffffffffffffffffffffffffffffffffff1916908160001a9053507f780000000000000000000000000000000000000000000000000000000000000081600181518110610d0857610d07611538565b5b60200101907effffffffffffffffffffffffffffffffffffffffffffffffffffffffffffff1916908160001a90535060006001846002610d489190611493565b610d5291906114d5565b90505b6001811115610df2577f3031323334353637383961626364656600000000000000000000000000000000600f861660108110610d9457610d93611538565b5b1a60f81b828281518110610dab57610daa611538565b5b60200101907effffffffffffffffffffffffffffffffffffffffffffffffffffffffffffff1916908160001a905350600485901c945080610deb90611567565b9050610d55565b5060008414610e36576040517f08c379a0000000000000000000000000000000000000000000000000000000008152600401610e2d906115dc565b60405180910390fd5b8091505092915050565b600080fd5b60007fffffffff0000000000000000000000000000000000000000000000000000000082169050919050565b610e7a81610e45565b8114610e8557600080fd5b50565b600081359050610e9781610e71565b92915050565b600060208284031215610eb357610eb2610e40565b5b6000610ec184828501610e88565b91505092915050565b60008115159050919050565b610edf81610eca565b82525050565b6000602082019050610efa6000830184610ed6565b92915050565b600073ffffffffffffffffffffffffffffffffffffffff82169050919050565b6000610f2b82610f00565b9050919050565b610f3b81610f20565b8114610f4657600080fd5b50565b600081359050610f5881610f32565b92915050565b600060208284031215610f7457610f73610e40565b5b6000610f8284828501610f49565b91505092915050565b6000819050919050565b610f9e81610f8b565b82525050565b6000602082019050610fb96000830184610f95565b92915050565b610fc881610f8b565b8114610fd357600080fd5b50565b600081359050610fe581610fbf565b92915050565b60006020828403121561100157611000610e40565b5b600061100f84828501610fd6565b91505092915050565b6000806040838503121561102f5761102e610e40565b5b600061103d85828601610fd6565b925050602061104e85828601610f49565b9150509250929050565b600082825260208201905092915050565b7f416363657373436f6e74726f6c3a2063616e206f6e6c792072656e6f756e636560008201527f20726f6c657320666f722073656c660000000000000000000000000000000000602082015250565b60006110c5602f83611058565b91506110d082611069565b604082019050919050565b600060208201905081810360008301526110f4816110b8565b9050919050565b7f416c7265616479207265676973746572656420617320446f63746f7200000000600082015250565b6000611131601c83611058565b915061113c826110fb565b602082019050919050565b6000602082019050818103600083015261116081611124565b9050919050565b7f416c726561647920726567697374657265642061732052657365617263686572600082015250565b600061119d602083611058565b91506111a882611167565b602082019050919050565b600060208201905081810360008301526111cc81611190565b9050919050565b7f416c726561647920726567697374657265642061732050617469656e74000000600082015250565b6000611209601d83611058565b9150611214826111d3565b602082019050919050565b60006020820190508181036000830152611238816111fc565b9050919050565b7f416c7265616479207265676973746572656420617320456d657267656e637900600082015250565b6000611275601f83611058565b91506112808261123f565b602082019050919050565b600060208201905081810360008301526112a481611268565b9050919050565b600081905092915050565b7f416363657373436f6e74726f6c3a206163636f756e7420000000000000000000600082015250565b60006112ec6017836112ab565b91506112f7826112b6565b601782019050919050565b600081519050919050565b60005b8381101561132b578082015181840152602081019050611310565b60008484015250505050565b600061134282611302565b61134c81856112ab565b935061135c81856020860161130d565b80840191505092915050565b7f206973206d697373696e6720726f6c6520000000000000000000000000000000600082015250565b600061139e6011836112ab565b91506113a982611368565b601182019050919050565b60006113bf826112df565b91506113cb8285611337565b91506113d682611391565b91506113e28284611337565b91508190509392505050565b6000601f19601f8301169050919050565b600061140a82611302565b6114148185611058565b935061142481856020860161130d565b61142d816113ee565b840191505092915050565b6000602082019050818103600083015261145281846113ff565b905092915050565b6000819050919050565b7f4e487b7100000000000000000000000000000000000000000000000000000000600052601160045260246000fd5b600061149e8261145a565b91506114a98361145a565b92508282026114b78161145a565b915082820484148315176114ce576114cd611464565b5b5092915050565b60006114e08261145a565b91506114eb8361145a565b925082820190508082111561150357611502611464565b5b92915050565b7f4e487b7100000000000000000000000000000000000000000000000000000000600052604160045260246000fd5b7f4e487b7100000000000000000000000000000000000000000000000000000000600052603260045260246000fd5b60006115728261145a565b91506000820361158557611584611464565b5b600182039050919050565b7f537472696e67733a20686578206c656e67746820696e73756666696369656e74600082015250565b60006115c6602083611058565b91506115d182611590565b602082019050919050565b600060208201905081810360008301526115f5816115b9565b905091905056fea26469706673582212200ecfd93a7c3e761d0bede8a9f905feb3e148c282d49100245556c56041e3d4c664736f6c63430008130033",
  "linkReferences": {},
  "deployedLinkReferences": {}
}